:100000000C94E1000C9409010C9409010C94090171
:100010000C9409010C9409010C9409010C94090138
:100020000C9409010C9409010C9409010C94090128
:100030000C9409010C9409010C9409010C94090118
:100040000C940D0C0C9409010C94780F0C94AA0FCD
:100050000C9409010C9409010C9409010C940901F8
:100060000C94C3080C940901000000080002010070
:100070000003040700000000000000000102040863
:100080001020408001020408102001020408102002
:10009000040404040404040402020202020203032E
:1000A00003030303000000002300260029000000D2
:1000B0000000250028002B0000000000240027007D
:1000C0002A0000407A10F35A00A0724E180900105E
:1000D000A5D4E80000E87648170000E40B540200BD
:1000E00000CA9A3B000000E1F505000080969800E8
:1000F000000040420F000000A08601000000102711
:1001000000000000E80300000000640000000000A0
:100110000A00000000000100000000002C76D888D2
:10012000DC674F0823DFC1DFAE59E1B1B796E5E3E5
:10013000E453C63AE651997696E8E6C28426EB89FE
:100140008C9B62ED407C6FFCEFBC9C9F40F2BAA59B
:100150006FA5F490055A2AF75C936B6CF9676DC133
:100160001BFCE0E40D47FEF520E6B500D0ED902E37
:100170000300943577050080841E080000204E0A95
:10018000000000C80C333333330F986E12831141D3
:10019000EF8D2114893BE65516CFFEE6DB18D1849E
:1001A0004B381BF77C1D901DA4BBE42420328472C5
:1001B0005E228100C9F124ECA1E53D27380725081E
:1001C000DA0F11241FBECFEFD8E0DEBFCDBF12E0A3
:1001D000A0E0B1E0E0E0F5E302C005900D92A430AC
:1001E000B107D9F723E0A4E0B2E001C01D92A83E18
:1001F000B207E1F711E0C2ECD1E004C02297FE01A2
:100200000E942315CC3BD107C9F70E941E100C9405
:100210007E1A0C94000083E00E94F30C61E086E0FB
:100220000E949B0D60E082E00E949B0D61E08DE0EA
:100230000E949B0D60E089E00E949B0D60E088E0D9
:100240000E949B0D86E792E00E94290B86E792E0D0
:100250000E94190A86E792E00E94BD0A26E040E06B
:1002600051EE60E070E08BE493E00C94160F0F9376
:100270001F93CF93DF93082F162FEA0186E792E0B2
:100280000E94730A68E171E086E792E00E946B10B9
:10029000E02FF0E0EE0FFF1FE75FFE4F60817181FE
:1002A00086E792E00E946B1041E060E086E792E012
:1002B0000E947A0A0130B9F46EE171E086E792E0BB
:1002C0000E946B1041E066E086E792E00E947A0AA5
:1002D00086E0189FB00111244AE050E086E792E0E2
:1002E0000E943D1113C067E271E086E792E00E9430
:1002F0006B1041E066E086E792E00E947A0A4AE0ED
:1003000050E0612F86E792E00E94521141E069E0DF
:1003100086E792E00E947A0A60E371E086E792E065
:100320000E946B1061E771E086E792E00E946B101B
:1003300041E06CE086E792E00E947A0A4AE050E0F1
:10034000BE0186E792E0DF91CF911F910F910C944F
:100350005911EF92FF921F93CF93DF931F92CDB766
:10036000DEB7182F7A0186E792E069830E94730A4C
:100370006981113069F486E0689FB00111244AE078
:1003800050E086E792E00E943D1164E371E008C00E
:100390004AE050E086E792E00E94521167E371E084
:1003A00086E792E00E946B10E12FF0E0EE0FFF1F56
:1003B000E75FFE4F6081718186E792E00E946B10DB
:1003C00041E060E086E792E00E947A0A6EE371E025
:1003D00086E792E00E946B104AE050E0B70186E7A2
:1003E00092E00E94591160E471E086E792E00E9479
:1003F0006B1041E068E086E792E00E947A0A64E4CC
:1004000071E086E792E00F90DF91CF911F91FF900E
:10041000EF900C946B102F923F924F925F926F92DD
:100420007F928F929F92AF92BF92CF92DF92EF9284
:10043000FF920F931F93CF93DF93CDB7DEB76C97E7
:100440000FB6F894DEBF0FBECDBF688F798F8A8F4D
:100450009B8FF42ED52E48015901C901B80120E81F
:100460003EEE46E350E00E94D514222EC501B401B1
:1004700020E63AEE40E050E00E94D5146CE3462EB0
:10048000512C612C712CCA01B901A30192010E9467
:10049000D514362E7C8FC501B40128EE33E040E040
:1004A00050E00E94D514CA01B901A30192010E9433
:1004B000D514B62EA72E86E792E00E94730A4E014D
:1004C00081E1880E911C840122E045E0688D798DE0
:1004D0008A8D9B8D0E943615DF92FF929F928F929C
:1004E0008DE491E09F938F93005111091F930F9317
:1004F0000E945715B80186E792E00E946B100FB674
:10050000F894DEBF0FBECDBFEE2031F066E571E09E
:1005100086E792E00E946B1041E060E086E792E09F
:100520000E947A0AAF92BF929C8D9F933F921F9236
:100530002F9288E591E09F938F931F930F930E94D2
:1005400057150FB6F894DEBF0FBECDBFEE2011F0E9
:10055000CC2011F0B80102C06AE671E086E792E0B3
:100560000E946B106C960FB6F894DEBF0FBECDBF25
:10057000DF91CF911F910F91FF90EF90DF90CF907F
:10058000BF90AF909F908F907F906F905F904F90B3
:100590003F902F9008954F925F926F927F928F922B
:1005A0009F92AF92BF92CF92DF92EF92FF920F9302
:1005B0001F93CF938091190290911A02883C910564
:1005C00008F492C010921A0210921902609121024E
:1005D000709122028091230290912402F9ECCF2E97
:1005E000D12CE12CF12CA70196010E94D514CA014F
:1005F000B9010E94A81320E030EC4FE754E40E94B8
:100600000F132EE93EE045E651E40E945E1460932C
:1006100031027093320280933302909334026091DE
:100620001D0270911E0280911F0290912002A7016D
:1006300096010E94D514CA01B9010E94A81320E0B6
:1006400030EC4FE754E40E940F1323E436E54BEF00
:100650005FE30E945E1460932D0270932E028093DC
:100660002F029093300280910602882319F1609145
:1006700006017091070180E090E01F921F921F9287
:100680002DE62F93A12CB12C650118EEE12E13E07D
:10069000F12E00E010E020E030E0A9010E945E129F
:1006A0006150710986E00E94130D0F900F900F901A
:1006B0000F9009C060E070E086E00E94130D60E0DA
:1006C00086E00E94D40D1092210210922202109214
:1006D00023021092240210921D0210921E02109208
:1006E0001F021092200205C0019690931A02809377
:1006F000190281E692E00E94710B8DE492E00E9463
:10070000710B89E392E00E94710B8DE492E00E94EC
:10071000080C81110AC089E392E00E94080C88232A
:1007200029F180911B02823009F580911502909188
:100730001602A0911702B0911802892B8A2B8B2BDD
:1007400009F432C20E94570CC0901502D0901602D4
:10075000E0901702F09018026C197D098E099F092C
:10076000623371058105910508F00BC2C0911C022E
:10077000C111A8C080911B02811111C08DE492E0CB
:100780000E94000C882329F080917502823008F4C1
:1007900020C289E392E00E94000C811110C2C09136
:1007A0001B02C130A1F580917502813071F48DE496
:1007B00092E00E94000C8823C1F0809108018130F2
:1007C000A1F48093040182E00EC28DE492E00E94C5
:1007D000000C882309F40AC280910801833008F0D4
:1007E00005C2C09304018F5F10C089E392E00E94AC
:1007F000000C882329F080910801823009F4F0C1AF
:1008000080910801833018F082E080930801809184
:100810001B02823029F58DE492E00E94000C8111C8
:1008200004C080910502882369F0809106019091AF
:100830000701883E23E0920728F421E02093040179
:100840000A96F1C189E392E00E94000C8111DFC198
:10085000809104028111DBC1109205021092040202
:1008600080910401882361F01092040140910601F7
:100870005091070160910801809175020E94370133
:1008800081E692E00E94000C882309F4D1C1809196
:100890001B02823008F0CCC191E0909304018F5F7D
:1008A00080931B0280911B02813049F028F0823036
:1008B00009F01CC141E069C040E064E067C041E06C
:1008C00065E064C0C13009F066C08DE492E00E942A
:1008D000000C882329F080910501882309F4C0C108
:1008E00089E392E00E94000C882329F080910501A1
:1008F000813009F4BAC181E692E00E94000C88239D
:1009000029F0C0910501C13009F4B4C181E692E03B
:100910000E94000C8823F1F080910501882309F4DE
:10092000B2C118C0813008F0EDC16091080170E0DB
:1009300080E090E00E94AA132DEC3CEC4CE450E4E3
:100940000E945E146093290270932A0280932B0206
:1009500090932C0280910401882381F080911C02E5
:10096000813061F410920401409106015091070119
:1009700060910801809175020E94A9018091050192
:1009800041E0811102C068E001C06BE086E792E0BF
:100990000E947A0AABC0C23009F0A8C0809106025A
:1009A0008823B1F00E94570CC0901102D09012021F
:1009B000E0901302F09014026C197D098E099F09D2
:1009C00060930D0270930E0280930F0290931002B9
:1009D0002091290230912A0240912B0250912C0241
:1009E0006091310270913202809133029091340211
:1009F0000E940B1387FF1FC0809106028823D9F045
:100A00001092060281E08093070220E030E041E688
:100A100055E4609125027091260280912702909101
:100A200028020E940F136093350270933602809360
:100A3000370290933802809107028823A1F00E9428
:100A4000570CC0900902D0900A02E0900B02F0907F
:100A50000C026C197D098E099F09653F7140810563
:100A6000910508F05EC1809106028823A1F00E94E2
:100A7000570CC0900902D0900A02E0900B02F0904F
:100A80000C026C197D098E099F09693E734081052E
:100A9000910508F05BC180910401882339F18090B1
:100AA0000D0290900E02A0900F02B0901002609183
:100AB00035027091360280913702909138020E947F
:100AC0007C132B013C0160913102709132028091C4
:100AD000330290913402C0900802E0900702950121
:100AE0008401A2010E940B021092040180E10E9485
:100AF000F60CAA2797FDA095BA2F4091210250919C
:100B000022026091230270912402480F591F6A1F2C
:100B10007B1F409321025093220260932302709323
:100B200024028FE00E94F60CAA2797FDA095BA2F09
:100B300040911D0250911E0260911F02709120028F
:100B4000480F591F6A1F7B1F40931D0250931E02BE
:100B500060931F027093200261E070E080E090E0FB
:100B6000CF911F910F91FF90EF90DF90CF90BF90AA
:100B7000AF909F908F907F906F905F904F900C946C
:100B8000860C8DE492E00E94080C882321F081E01D
:100B90008093050209C089E392E00E94080C882333
:100BA00019F081E0809304020E94570C60931502B3
:100BB000709316028093170290931802D7CD8091FC
:100BC0007502882309F4EBCD91E0909304018150E4
:100BD00004C091E0909304018F5F80937502DFCD94
:100BE00081E080930401809308010ACE89E392E0BA
:100BF0000E94000C882309F40ACE809108018230FB
:100C000008F405CE91E0909304018150FECD8091CF
:100C10000601909107018333910508F41DCE21E070
:100C2000209304010A97909307018093060114CE44
:100C300081E692E00E94000C882309F433CE809173
:100C40001B02823009F02ECEC1E0C0931C0210922C
:100C50001B0286E792E00E946C0AC093040122CE38
:100C6000C0930501C09304013BCE1092050180930F
:100C7000040141CE10921C0286E792E00E946C0AA9
:100C8000C093040143CE82E080931C0286E792E089
:100C90000E946C0AC1E0C0930401109207021092F6
:100CA000250210922602109227021092280286E74F
:100CB00092E00E94AF0A86E792E00E94B60A66E7D9
:100CC00071E08BE493E00E9488100E94570C6093BF
:100CD0001102709312028093130290931402C09336
:100CE000060280917502813009F01CCE60910801E6
:100CF00070E080E090E00E94AA1320E030E048EA33
:100D000050E41ECE823009F025CE6091080170E0DB
:100D100080E090E00E94AA1320E030E040E250E43E
:100D20000FCE81E0809304010E94570C609309026A
:100D300070930A0280930B0290930C0281E09091D1
:100D40000802911180E0809308028DCE24E33AEBF3
:100D500043E05BE360912D0270912E0280912F029F
:100D6000909130020E940F1320E030E040E05FE3FA
:100D70000E94A7126B017C016093350270933602CA
:100D800080933702909338020E94570C809009029A
:100D900090900A02A0900B02B0900C026819790999
:100DA0008A099B0928EE33E040E050E00E94D51408
:100DB000CA01B9010E94A8139B01AC01C701B60189
:100DC0000E945E149B01AC01609125027091260285
:100DD00080912702909128020E94A7126093250219
:100DE00070932602809327029093280281E08093DB
:100DF00004010E94570C6093090270930A028093C9
:100E00000B0290930C0240910D0250910E026091E2
:100E10000F02709110022AE030E08BE493E00E9410
:100E200045116CE28BE493E00E946D104091310219
:100E300050913202609133027091340222E030E02E
:100E40008BE493E00E944A126CE28BE493E00E94F0
:100E50006D104091350250913602609137027091C9
:100E6000380222E030E08BE493E00E944C1213CE73
:100E70000F931F9322E040E167E286E792E00E9431
:100E8000F00904EF11E022E330E044E150E062E0D9
:100E900070E081E692E00E94510B22E330E044E1F1
:100EA00050E069E070E08DE492E00E94510B22E393
:100EB00030E044E150E068E070E089E392E00E94B5
:100EC000510B1F910F9108958091B20290E02091F3
:100ED000B302821B910908952091B3028091B2025E
:100EE000281750F4E22FF0E0EC54FD4F808190E0A1
:100EF0002F5F2093B30208958FEF9FEF0895E09145
:100F0000B3028091B202E81730F4F0E0EC54FD4FE8
:100F1000808190E008958FEF9FEF08950895CF921C
:100F2000DF92EF92FF920F931F93CF93DF937C0199
:100F3000CB018A0120918E02222389F0EB016B0103
:100F4000C40ED51ECC15DD0569F06991D701ED9170
:100F5000FC910190F081E02DC7010995F3CF642F3A
:100F60000E949A08C801DF91CF911F910F91FF90C5
:100F7000EF90DF90CF900895CF93DF931F92CDB77E
:100F8000DEB7698320918E022223D1F020918F0257
:100F9000203240F021E030E0FC013383228380E006
:100FA00090E015C080919002E82FF0E0EF56FD4FE1
:100FB000998190838F5F8093900280938F0205C008
:100FC00061E0CE0101960E949A0881E090E00F90C6
:100FD000DF91CF910895FC011382128248EE53E015
:100FE00060E070E0448355836683778381ED91E010
:100FF0009183808308951092B3021092B2021092EE
:10100000900210928F020C94290881E080938E0246
:101010006093B1021092900210928F0208950F9384
:10102000062F21E040918F0261E972E08091B102C8
:101030000E9447081092900210928F0210928E0226
:101040000F91089561E00C940F0882E892E00C94EF
:10105000EB071092410381E080933F0310923E031F
:1010600061E082E10E94D40D61E083E10E94D40D31
:10107000E9EBF0E080818E7F808380818D7F8083AB
:1010800088E48093B80085E48093BC0008950F93B2
:10109000413208F046C0909141039111FCCF92E09B
:1010A0009093410300933F039FEF9093D4021092DB
:1010B000190340931803FB016AE173E0DB019A2FE7
:1010C000961B941718F491919D93F9CF10924003B9
:1010D00090914003880F892B8093400380913E03B9
:1010E000813041F410923E03809140038093BB0015
:1010F00085EC01C085EE8093BC00222321F0809115
:1011000041038230E1F38091D4028F3F61F08091FE
:10111000D402803251F08091D402803341F483E0D4
:1011200007C081E005C080E003C082E001C084E028
:101130000F910895613298F420914103243089F48D
:101140006093F602FC0188EF92E0DC012A2F281B55
:10115000261718F421912D93F9CF80E0089581E0AE
:10116000089582E0089585ED8093BC008091BC00D5
:1011700084FDFCCF10924103089585EC8093BC0060
:101180001092410308951F920F920FB60F921124EF
:101190002F933F934F935F936F937F938F939F937F
:1011A000AF93BF93EF93FF938091B900887F803610
:1011B00009F49CC068F5883209F45BC090F4803172
:1011C00009F454C038F4882309F4F5C0883009F4D0
:1011D0004DC0F5C0883109F44CC0803209F45DC0BF
:1011E000EEC0803409F468C048F4803309F455C077
:1011F000883309F0E4C08093D402A8C0803509F494
:101200004FC0883509F45DC0883409F0D8C0D5C016
:10121000883909F4C6C0A8F4883709F467C038F4DF
:10122000883609F463C0803709F460C0C8C08838C4
:1012300009F4B7C0803909F45FC0803809F0BFC035
:101240005BC0803B09F485C038F4803A09F466C07D
:10125000883A09F47EC0B3C0803C09F4A6C0883C3B
:1012600009F4A3C0883B09F489C0A9C08091400358
:1012700010C09091190380911803981770F5E091B0
:10128000190381E08E0F80931903F0E0E65EFC4FB6
:1012900080818093BB0085EC85C08093D4028DC093
:1012A000E091190381E08E0F809319038091BB00B8
:1012B000F0E0E65EFC4F8083909119038091180363
:1012C0006DC0E091190381E08E0F80931903809126
:1012D000BB00F0E0E65EFC4F808380913F0381110C
:1012E0006CC081E080933E0384EA60C083E0809319
:1012F00041031092D502CFCF8091D502803208F001
:1013000050C0E091D50281E08E0F8093D50280918C
:10131000BB00F0E0EA52FD4F8083BDCF8091D50243
:10132000803230F4E091D502F0E0EA52FD4F1082B5
:101330000E94B3086091D50270E0E0913A03F09109
:101340003B0386ED92E009951092D5020E94BD08FC
:1013500036C084E0809341031092F7021092F602A7
:10136000E0913C03F0913D0309958091F6028111D3
:1013700005C081E08093F6021092F802E091F70236
:1013800081E08E0F8093F702F0E0E850FD4F8081FE
:101390008093BB009091F7028091F602981708F4B1
:1013A0007ACF85E88093BC000AC085EC8093BC00AE
:1013B0001092410304C01092D4020E94B308FF911E
:1013C000EF91BF91AF919F918F917F916F915F91BD
:1013D0004F913F912F910F900FBE0F901F90189536
:1013E000FC011382128281EE91E0918380836483F9
:1013F00041872287138608951F93CF93DF93EC01D3
:10140000162F6C8182E892E00E940508E09182022A
:10141000F09183026B85612B0190F081E02D82E8D1
:1014200092E0099582E892E0DF91CF911F910C94B0
:10143000220828E0FC01238760E00C94FC091F933C
:10144000CF93DF93EC01162F64600E94FC0981E0CA
:1014500090E00E94AE0C612F6B7FCE010E94FC09D0
:1014600082E390E0DF91CF911F910C94AE0C1F931B
:10147000CF93DF93EC01162F0E94FC09612FCE0160
:10148000DF91CF911F910C941F0AEF92FF921F934F
:10149000CF93DF931F92CDB7DEB77C01162F607F0D
:1014A000642B49830E94370A80E1189FB001112400
:1014B0004981642BC7010F90DF91CF911F91FF905D
:1014C000EF900C94370A41E00E94450A80E090E0DA
:1014D000089540E00C94450A61E00E94690A80ED9D
:1014E00097E00C94AE0C62E00E94690A80ED97E0F0
:1014F0000C94AE0CCF93DF93CDB7DEB728970FB621
:10150000F894DEBF0FBECDBF28E0E0E1F1E0DE01E0
:10151000119601900D922A95E1F7FC012085241780
:1015200010F44FEF420FFE013196E40FF11DE40F6E
:10153000F11D2081260F2068622F28960FB6F8949F
:10154000DEBF0FBECDBFDF91CF910C94690AFC01C5
:101550006681262F246026836C600C94690AFC0146
:1015600066816D7F668368600C94690AFC01668100
:101570006E7F668368600C94690AFC016681262F81
:101580002160268369600C94690ACF93DF93EC0194
:10159000423018F08D8188608D834887222329F09E
:1015A000413019F48D8184608D8362E370E080E0C6
:1015B00090E00E94860C6B85CE010E94FC0968EECB
:1015C00073E080E090E00E94860C60E3CE010E9410
:1015D000370A84E991E10E94AE0C60E3CE010E94DB
:1015E000370A84E991E10E94AE0C60E3CE010E94CB
:1015F000370A86E990E00E94AE0C60E2CE010E94BC
:10160000370A6D816062CE010E94690A84E08E8390
:10161000CE010E94A70ACE010E946C0A82E08F834D
:1016200066E0CE010E94690ACE01DF91CF910C9451
:10163000730ACF93DF93EC0182E892E00E94FB07EC
:101640001D8220E04A856985CE01DF91CF910C94FF
:10165000C50A0C94190B0F931F93CF93DF931F921E
:10166000CDB7DEB78C01FC01638B862F69830E94A6
:101670000A0EF801128A6981862F0E940A0E892BB0
:1016800019F083E0F801828B0E94570CF801608307
:101690007183828393830F90DF91CF911F910F917C
:1016A0000895CF92DF92EF92FF920F931F93CF9303
:1016B000DF93EC017A0169010E942B0BF98AE88A19
:1016C0001D870C87DF86CE86188619861A861B86AC
:1016D000DF91CF911F910F91FF90EF90DF90CF900E
:1016E0000895FF920F931F93CF93DF93EC018B89A3
:1016F0000E940A0EFF24F394892B09F4F12C8A89A5
:10170000982F977F9A8B86958170F81651F00E94DA
:10171000570C688379838A839B838A8992E089271F
:1017200021C00E94570C088119812A813B81601BCE
:10173000710B820B930B0889198920E030E0601748
:1017400071078207930778F08A8981708F1559F0A5
:101750000E94570C688379838A839B838A8991E0EE
:10176000892788608A8B8A8983FF1EC084FD1AC0FE
:101770000E94570C0C811D812E813F81601B710BD3
:10178000820B930B0C851D8520E030E060177107FC
:101790008207930738F10E94570C6C837D838E83F8
:1017A0009F8324C08F7E1DC04C815D816E817F81AF
:1017B000452B462B472BD1F00E94570C0C811D81E5
:1017C0002E813F81601B710B820B930B0C851D8555
:1017D00020E030E0601771078207930738F08A89AC
:1017E00080618A8B1C821D821E821F828A8983FBF4
:1017F000882780F9DF91CF911F910F91FF90089575
:10180000FC019289997081E0993009F080E0089597
:10181000FC0182898295817008951F920F920FB604
:101820000F9211242F933F938F939F93AF93BF9366
:101830008091430390914403A0914503B0914603E6
:101840003091420323E0230F2D3720F40196A11D90
:10185000B11D05C026E8230F0296A11DB11D2093DE
:1018600042038093430390934403A0934503B093B2
:1018700046038091470390914803A0914903B0919A
:101880004A030196A11DB11D80934703909348031D
:10189000A0934903B0934A03BF91AF919F918F9159
:1018A0003F912F910F900FBE0F901F9018952FB75B
:1018B000F8946091430370914403809145039091A3
:1018C00046032FBF08953FB7F89480914703909146
:1018D0004803A0914903B0914A0326B5A89B05C0CF
:1018E0002F3F19F00196A11DB11D3FBF6627782F2C
:1018F000892F9A2F620F711D811D911D42E0660F85
:10190000771F881F991F4A95D1F70895CF92DF92CC
:10191000EF92FF92CF93DF936B017C010E94630CE7
:10192000EB01C114D104E104F10489F00E94A51275
:101930000E94630C6C1B7D0B683E734090F381E04A
:10194000C81AD108E108F108C851DC4FEACFDF918D
:10195000CF91FF90EF90DF90CF900895019739F0ED
:10196000880F991F880F991F02970197F1F7089523
:10197000789484B5826084BD84B5816084BD85B56A
:10198000826085BD85B5816085BDEEE6F0E0808131
:1019900081608083E1E8F0E0108280818260808352
:1019A000808181608083E0E8F0E0808181608083D5
:1019B000E1EBF0E0808184608083E0EBF0E0808107
:1019C00081608083EAE7F0E08081846080838081A9
:1019D0008260808380818160808380818068808351
:1019E0001092C100089580930F0108958E3008F081
:1019F0008E50877020910F0190E4299F900111244F
:101A0000822B80937C0080917A00806480937A009E
:101A100080917A0086FDFCCF80917800209179003A
:101A200090E0922B08951F93CF93DF93182FEB0133
:101A300061E00E949B0D209711F460E004C0CF3F4D
:101A4000D10539F461E0812FDF91CF911F910C9482
:101A5000D40DE12FF0E0E859FF4FE491E330F9F0C5
:101A600048F4E130B9F0E230A1F584B5806284BD7C
:101A7000C8BD34C0E730E9F0E83019F1E43049F589
:101A800080918000806280938000D0938B00C0930F
:101A90008A0024C084B5806884BDC7BD1FC0809102
:101AA0008000806880938000D0938900C093880074
:101AB00015C08091B00080688093B000C093B300DF
:101AC0000DC08091B00080628093B000C093B400DC
:101AD00005C0C038D1050CF0B5CFAFCFDF91CF91A5
:101AE0001F910895833081F028F4813099F082307D
:101AF000A1F008958730A9F08830B9F08430D1F48E
:101B0000809180008F7D03C0809180008F778093CB
:101B10008000089584B58F7702C084B58F7D84BD21
:101B200008958091B0008F7703C08091B0008F7DC1
:101B30008093B0000895CF93DF9390E0FC01E458C8
:101B4000FF4F2491FC01E057FF4F8491882349F116
:101B500090E0880F991FFC01E854FF4FA591B491C4
:101B600082559F4FFC01C591D4919FB7611108C068
:101B7000F8948C91209582238C93888182230AC0CB
:101B8000623051F4F8948C91322F309583238C93EA
:101B90008881822B888304C0F8948C91822B8C934B
:101BA0009FBFDF91CF9108950F931F93CF93DF9342
:101BB0001F92CDB7DEB7282F30E0F901E859FF4F6B
:101BC0008491F901E458FF4F1491F901E057FF4F58
:101BD00004910023C9F0882321F069830E94720DCB
:101BE0006981E02FF0E0EE0FFF1FE255FF4FA59156
:101BF000B4919FB7F8948C91611103C01095812323
:101C000001C0812B8C939FBF0F90DF91CF911F91CB
:101C10000F910895CF93DF93282F30E0F901E85911
:101C2000FF4F8491F901E458FF4FD491F901E05737
:101C3000FF4FC491CC2391F081110E94720DEC2FC3
:101C4000F0E0EE0FFF1FEC55FF4FA591B4912C91E2
:101C50002D2381E090E021F480E002C080E090E05C
:101C6000DF91CF910895FC01818D228D90E0805C01
:101C70009F4F821B91098F7399270895FC01918DC5
:101C8000828D981731F0828DE80FF11D858D90E0DF
:101C900008958FEF9FEF0895FC01918D828D981725
:101CA00061F0828DDF01A80FB11D5D968C91928D40
:101CB0009F5F9F73928F90E008958FEF9FEF08953D
:101CC00080ED9FE0892B49F080E090E0892B29F09E
:101CD0000E94D00F81110C9400000895FC01848DA6
:101CE000DF01A80FB11DA35ABF4F2C91848D90E046
:101CF00001968F739927848FA689B7892C93A08921
:101D0000B1898C9180648C93938D848D981306C0D7
:101D10000288F389E02D80818F7D80830895CF93A1
:101D2000DF93EC01888D8823C9F0EA89FB898081E3
:101D300085FD05C0A889B9898C9186FD0FC00FB6B5
:101D400007FCF5CF808185FFF2CFA889B9898C91F6
:101D500085FFEDCFCE010E946E0EE7CFDF91CF91D0
:101D60000895CF92DF92FF920F931F93CF93DF934B
:101D70001F92CDB7DEB76C01DC015B969C915B973F
:101D80005C968C915C97981307C05096ED91FC91EE
:101D90005197808185FD32C0F601038D10E00F5F01
:101DA0001F4F0F731127F02EF601848DF81211C00A
:101DB0000FB607FCF9CFD6015096ED91FC915197E3
:101DC000808185FFF1CFC60169830E946E0E698113
:101DD000EBCF838DE80FF11DE35AFF4F6083D601EF
:101DE0005B960C935B975296ED91FC915397808193
:101DF0008062808381E058968C930DC0D601569600
:101E0000ED91FC91579760835096ED91FC9151971D
:101E100080818064808381E090E00F90DF91CF919A
:101E20001F910F91FF90DF90CF900895BF92CF92B6
:101E3000DF92EF92FF92CF93DF93EC016A017B0177
:101E4000B22EE889F98982E08083411581EE580736
:101E500061057105A1F060E079E08DE390E0A701F4
:101E600096010E94D5142150310941095109569516
:101E7000479537952795211580E1380798F0E8892F
:101E8000F989108260E874E88EE190E0A70196017C
:101E90000E94D514215031094109510956954795A1
:101EA00037952795EC85FD853083EE85FF8520836A
:101EB000188EEC89FD89B082EA89FB898081806176
:101EC0008083EA89FB89808188608083EA89FB8935
:101ED000808180688083EA89FB8980818F7D80830F
:101EE000DF91CF91FF90EF90DF90CF90BF9008955A
:101EF0001F920F920FB60F9211242F938F939F93DF
:101F0000EF93FF93E0915B03F0915C038081E0919C
:101F10006103F091620382FD12C09081809164039D
:101F20008F5F8F7320916503821751F0E0916403F6
:101F3000F0E0E55BFC4F958F8093640301C08081E6
:101F4000FF91EF919F918F912F910F900FBE0F9066
:101F50001F9018951F920F920FB60F9211242F9376
:101F60003F934F935F936F937F938F939F93AF9321
:101F7000BF93EF93FF938BE493E00E946E0EFF916B
:101F8000EF91BF91AF919F918F917F916F915F91F1
:101F90004F913F912F910F900FBE0F901F9018956A
:101FA0008BE493E00E94330E21E0892B09F420E0BA
:101FB000822F089510924E0310924D0388EE93E005
:101FC000A0E0B0E080934F0390935003A09351039F
:101FD000B093520389EE91E090934C0380934B03AE
:101FE00085EC90E0909358038093570384EC90E045
:101FF00090935A038093590380EC90E090935C0394
:1020000080935B0381EC90E090935E0380935D038B
:1020100082EC90E09093600380935F0386EC90E005
:10202000909362038093610310926403109265039E
:102030001092660310926703089508950E94B80CE9
:102040000E941D100E940B01C0E6DEE00E94CB0240
:102050002097E1F30E94600EF9CFCF92DF92EF92CA
:10206000FF920F931F93CF93DF936C017A01EB01E3
:10207000E60EF71E00E010E0CE15DF0561F0699175
:10208000D601ED91FC910190F081E02DC6010995FA
:10209000080F191FF1CFC801DF91CF911F910F9148
:1020A000FF90EF90DF90CF9008956115710581F05A
:1020B000DB010D900020E9F7AD0141505109461BAD
:1020C000570BDC01ED91FC910280F381E02D099426
:1020D00080E090E008950C945510DC01ED91FC91A6
:1020E0000190F081E02D09940F931F93CF93DF931C
:1020F000EC016DE00E946D108C016AE0CE010E943F
:102100006D10800F911FDF91CF911F910F91089556
:102110000F931F93CF93DF93EC010E9455108C0116
:10212000CE010E947410800F911FDF91CF911F91FB
:102130000F9108958F929F92AF92BF92CF92DF92AC
:10214000EF92FF920F931F93CF93DF93CDB7DEB73C
:10215000A1970FB6F894DEBF0FBECDBF7C01C42E91
:10216000E52FCB01D22E19A221E02D1510F02AE087
:10217000D22E8E010F5D1F4F8D2C912CA12CB12CD6
:102180006C2D7E2FA50194010E94D5148C2DD29E1A
:1021900080191124015011098A3014F4805D01C0A6
:1021A000895CF8018083211531054105510521F035
:1021B000C22EE32FCA01E4CFB801C7010E94551017
:1021C000A1960FB6F894DEBF0FBECDBFDF91CF91C1
:1021D0001F910F91FF90EF90DF90CF90BF90AF9045
:1021E0009F908F900895CF92DF92EF92FF920F937E
:1021F0001F93CF93DF93EC016A017B012115310519
:1022000079F4E881F9810190F081E02D642FDF916C
:10221000CF911F910F91FF90EF90DF90CF90099495
:102220002A303105E9F477FF1AC06DE20E946D1083
:102230008C0144275527BA014C195D096E097F09A5
:102240002AE0CE010E949A10800F911FDF91CF915A
:102250001F910F91FF90EF90DF90CF9008952AE0AB
:10226000B701A601CE01DF91CF911F910F91FF9091
:10227000EF90DF90CF900C949A109A01AB016627F3
:1022800057FD6095762F0C94F3102115310541F41C
:10229000DC01ED91FC910190F081E02D642F099417
:1022A0000C949A109A01462F50E060E070E00C9474
:1022B00045119A01AB0160E070E00C9445114F921A
:1022C0005F926F927F928F929F92AF92BF92CF92C6
:1022D000DF92EF92FF920F931F93CF93DF93EC0166
:1022E0006A017B01B22E9A01AB01C701B6010E94BF
:1022F000C114882319F065EF71E027C0260137016A
:10230000E89477F82FEF3FEF4FE75FE7C301B201A3
:102310000E94C11481110DC02FEF3FEF4FE75FE71F
:10232000C301B2010E940B1318161CF469EF71E08F
:102330000CC02FEF3FEF4FE75FE4C701B6010E94EB
:102340005A141816ACF46DEF71E0CE01DF91CF9105
:102350001F910F91FF90EF90DF90CF90BF90AF90C3
:102360009F908F907F906F905F904F900C9455103E
:102370002FEF3FEF4FE75FECC701B6010E940B1351
:1023800087FDE1CF20E030E0A901C701B6010E943E
:102390000B1387FF0AC06DE2CE010E946D108C0105
:1023A000F7FAF094F7F8F09402C000E010E0A12CE6
:1023B00060E070E080E09FE3AB1441F020E030E0AB
:1023C00040E251E40E940F13A394F6CF9B01AC01AD
:1023D000C701B6010E94A7126B017C010E947C1309
:1023E0002B013C010E94A8139B01AC01C701B6015F
:1023F0000E94A6126B017C012AE0B301A201CE016A
:102400000E949A10080F191FBB2039F061E072E09A
:10241000CE010E945510080F191F7B2C772041F127
:1024200020E030E040E251E4C701B6010E945E14B2
:102430006B017C010E9477134B01AA2497FCA094A6
:10244000BA2C2AE030E0B501A401CE010E94F310BD
:10245000080F191FC501B4010E94AA139B01AC010A
:10246000C701B6010E94A6126B017C017A94D6CFF7
:10247000C801DF91CF911F910F91FF90EF90DF90F6
:10248000CF90BF90AF909F908F907F906F905F9014
:102490004F9008950C945F110F931F93CF93DF9388
:1024A000EC010E945F118C01CE010E947410800F1C
:1024B000911FDF91CF911F910F9108954F925F92DD
:1024C0006F927F92AF92BF92CF92DF92EF92FF9284
:1024D0000F931F93CF93DF93CDB7DEB729013A0156
:1024E000621B730B840B950B29893A894B895C8994
:1024F0002A193B094C095D09298B3A8B4B8B5C8B64
:102500009B01AC0169897A898B899C890E94C514D9
:10251000E418F50806091709A80197010E94F714A5
:102520002A0D3B1D4C1D5D1DCA01B901DF91CF91E4
:102530001F910F91FF90EF90DF90CF90BF90AF90E1
:102540007F906F905F904F90089508955058BB27EB
:10255000AA270ED075C166D130F06BD120F031F4CE
:102560009F3F11F41EF45BC10EF4E095E7FB51C1EF
:10257000E92F77D180F3BA176207730784079507AD
:1025800018F071F49EF58FC10EF4E0950B2EBA2F62
:10259000A02D0B01B90190010C01CA01A001112469
:1025A000FF27591B99F0593F50F4503E68F11A1615
:1025B000F040A22F232F342F4427585FF3CF4695A6
:1025C00037952795A795F0405395C9F77EF41F16C8
:1025D000BA0B620B730B840BBAF09150A1F0FF0F92
:1025E000BB1F661F771F881FC2F70EC0BA0F621F7E
:1025F000731F841F48F4879577956795B795F7956E
:102600009E3F08F0B3CF9395880F08F09927EE0FFF
:10261000979587950895D9D008F481E008950CD056
:102620000FC107D140F0FED030F021F45F3F19F028
:10263000F0C0511139C1F3C014D198F39923C9F3F3
:102640005523B1F3951B550BBB27AA2762177307B8
:10265000840738F09F5F5F4F220F331F441FAA1F6C
:10266000A9F333D00E2E3AF0E0E830D0915050402C
:10267000E695001CCAF729D0FE2F27D0660F771FDA
:10268000881FBB1F261737074807AB07B0E809F0BC
:10269000BB0B802DBF01FF2793585F4F2AF09E3F51
:1026A000510568F0B6C000C15F3FECF3983EDCF323
:1026B000869577956795B795F7959F5FC9F7880FCA
:1026C000911D9695879597F90895E1E0660F771F1C
:1026D000881FBB1F621773078407BA0720F0621BAD
:1026E000730B840BBA0BEE1F88F7E095089504D0A6
:1026F0006894B111D9C00895BCD088F09F5790F06C
:10270000B92F9927B751A0F0D1F0660F771F881F16
:10271000991F1AF0BA95C9F712C0B13081F0C3D031
:10272000B1E00895C0C0672F782F8827B85F39F0CF
:10273000B93FCCF3869577956795B395D9F73EF475
:1027400090958095709561957F4F8F4F9F4F08951D
:10275000E89409C097FB3EF490958095709561953B
:102760007F4F8F4F9F4F9923A9F0F92F96E9BB27F1
:102770009395F695879577956795B795F111F8CF6D
:10278000FAF4BB0F11F460FF1BC06F5F7F4F8F4FD8
:102790009F4F16C0882311F096E911C0772321F0CE
:1027A0009EE8872F762F05C0662371F096E8862F66
:1027B00070E060E02AF09A95660F771F881FDAF7BD
:1027C000880F9695879597F90895990F0008550FEA
:1027D000AA0BE0E8FEEF16161706E807F907C0F0A7
:1027E00012161306E407F50798F0621B730B840BAF
:1027F000950B39F40A2661F0232B242B252B21F489
:1028000008950A2609F4A140A6958FEF811D811D28
:10281000089597F99F6780E870E060E008959FEF62
:1028200080EC089500240A94161617061806090667
:10283000089500240A941216130614060506089536
:10284000092E0394000C11F4882352F0BB0F40F4BE
:10285000BF2B11F460FF04C06F5F7F4F8F4F9F4FFE
:10286000089557FD9058440F551F59F05F3F71F080
:102870004795880F97FB991F61F09F3F79F08795E7
:102880000895121613061406551FF2CF4695F1DF70
:1028900008C0161617061806991FF1CF8695710500
:1028A000610508940895E894BB2766277727CB0134
:1028B00097F908958ADF08F48FEF08950BD0C0CF01
:1028C000B1DF28F0B6DF18F0952309F0A2CFA7CF2B
:1028D0001124EACFC6DFA0F3959FD1F3950F50E006
:1028E000551F629FF001729FBB27F00DB11D639FC2
:1028F000AA27F00DB11DAA1F649F6627B00DA11D68
:10290000661F829F2227B00DA11D621F739FB00D0D
:10291000A11D621F839FA00D611D221F749F33277D
:10292000A00D611D231F849F600D211D822F762F16
:102930006A2F11249F5750408AF0E1F088234AF013
:10294000EE0FFF1FBB1F661F771F881F915050405F
:10295000A9F79E3F510570F05CCFA6CF5F3FECF327
:10296000983EDCF3869577956795B795F795E7954B
:102970009F5FC1F7FE2B880F911D9695879597F95C
:10298000089523DF880B990B0895DB018F939F93A4
:102990000E941615BF91AF91A29F800D911DA39F1C
:1029A000900DB29F900D11240895A1E21A2EAA1B3A
:1029B000BB1BFD010DC0AA1FBB1FEE1FFF1FA217EF
:1029C000B307E407F50720F0A21BB30BE40BF50BEC
:1029D000661F771F881F991F1A9469F76095709575
:1029E000809590959B01AC01BD01CF010895052E06
:1029F00097FB1EF400940E940E1557FD07D00E940D
:102A0000D51407FC03D04EF40C940E155095409548
:102A1000309521953F4F4F4F5F4F0895909580958A
:102A2000709561957F4F8F4F9F4F08950E94271596
:102A3000A59F900DB49F900DA49F800D911D112412
:102A40000895EE0FFF1F0590F491E02D0994A29FC9
:102A5000B001B39FC001A39F700D811D1124911D72
:102A6000B29F700D811D1124911D0895EF920F9357
:102A70001F93CF93DF93E80147FF02C034E101C009
:102A800034E0E42FFF27E7FDF095F7FF03C0F19551
:102A9000E195F109E32E022F2E2FAE010E944B1774
:102AA000CE01DF91CF911F910F91EF900895AEE08D
:102AB000B0E0EDE5F5E10C94551A0D891E8986E02C
:102AC0008C831A8309838FEF9FE79E838D83AE01EA
:102AD000475E5F4F6F89788DCE0101960E94791510
:102AE000EF81F885E00FF11F10822E96E4E00C9440
:102AF000711AACE0B0E0EFE7F5E10C94471A7C0105
:102B00006B018A01FC0117821682838181FFBDC19E
:102B1000CE0101964C01F7019381F60193FD859159
:102B200093FF81916F01882309F4ABC1853239F499
:102B300093FD859193FF81916F01853229F4B7014F
:102B400090E00E94B719E7CF512C312C20E02032C1
:102B5000A0F48B3269F030F4803259F0833269F49A
:102B600020612CC08D3239F0803339F4216026C0C9
:102B70002260246023C0286021C027FD27C030EDDB
:102B8000380F3A3078F426FF06C0FAE05F9E300D29
:102B90001124532E13C08AE0389E300D1124332E99
:102BA00020620CC08E3221F426FD6BC1206406C069
:102BB0008C3611F4206802C0883641F4F60193FD8A
:102BC000859193FF81916F018111C1CF982F9F7DD6
:102BD0009554933028F40C5F1F4FFFE3F9830DC029
:102BE000833631F0833771F0833509F05BC022C042
:102BF000F801808189830E5F1F4F44244394512C38
:102C0000540115C03801F2E06F0E711CF801A0806C
:102C1000B18026FF03C0652D70E002C06FEF7FEF2B
:102C2000C5012C870E94AC192C0183012C852F77BC
:102C3000222E17C03801F2E06F0E711CF801A0803F
:102C4000B18026FF03C0652D70E002C06FEF7FEFFB
:102C5000C5012C870E94A1192C012C852068222EE9
:102C6000830123FC1BC0832D90E048165906B0F465
:102C7000B70180E290E00E94B7193A94F4CFF501D1
:102C800027FC859127FE81915F01B70190E00E94AA
:102C9000B71931103A94F1E04F1A51084114510418
:102CA00071F7E5C0843611F0893639F5F80127FF50
:102CB00007C060817181828193810C5F1F4F08C0C2
:102CC00060817181882777FD8095982F0E5F1F4F57
:102CD0002F76B22E97FF09C09095809570956195DB
:102CE0007F4F8F4F9F4F2068B22E2AE030E0A40123
:102CF0000E94E919A82EA81844C0853729F42F7E10
:102D0000B22E2AE030E025C0F22FF97FBF2E8F3699
:102D1000C1F018F4883579F0B4C0803719F08837DD
:102D200021F0AFC02F2F2061B22EB4FE0DC08B2D2D
:102D30008460B82E09C024FF0AC09F2F9660B92E68
:102D400006C028E030E005C020E130E002C020E10C
:102D500032E0F801B7FE07C0608171818281938102
:102D60000C5F1F4F06C06081718180E090E00E5FB4
:102D70001F4FA4010E94E919A82EA818FB2DFF7768
:102D8000BF2EB6FE0BC02B2D2E7FA51450F4B4FE23
:102D90000AC0B2FC08C02B2D2E7E05C07A2C2B2D2C
:102DA00003C07A2C01C0752C24FF0DC0FE01EA0D72
:102DB000F11D8081803311F4297E09C022FF06C0F5
:102DC0007394739404C0822F867809F0739423FD62
:102DD00013C020FF06C05A2C731418F4530C571854
:102DE000732C731468F4B70180E290E02C870E9482
:102DF000B71973942C85F5CF731410F4371801C0EC
:102E0000312C24FF12C0B70180E390E02C870E9490
:102E1000B7192C8522FF17C021FF03C088E590E079
:102E200002C088E790E0B7010CC0822F867859F085
:102E300021FD02C080E201C08BE227FD8DE2B701D7
:102E400090E00E94B719A51438F4B70180E390E030
:102E50000E94B7195A94F7CFAA94F401EA0DF11D14
:102E60008081B70190E00E94B719A110F5CF3320FF
:102E700009F451CEB70180E290E00E94B7193A946C
:102E8000F6CFF7018681978102C08FEF9FEF2C96D6
:102E9000E2E10C94631A6F927F929F92AF92BF927D
:102EA000CF92DF92EF92FF920F931F93CF93DF9316
:102EB000CDB7DEB729970FB6F894DEBF0FBECDBFF2
:102EC0006A01B22E102F0C3320F4FF24F394F00E7D
:102ED00002C04CE3F42E0F2D27E0AE014F5F5F4F91
:102EE0000E94C9187981272F2970213031F0E1FC27
:102EF00006C0E0FC06C060E005C06DE203C06BE206
:102F000001C060E2AE2DA07173FF36C0662311F0E0
:102F100084E001C083E08B1510F4B81A01C0B12C15
:102F2000A1110BC0F6018B2D90E2882319F091932B
:102F30008150FBCFCB0CD11CB12C662331F0F601B4
:102F4000608396012F5F3F4F6901C6010396E2FE41
:102F500005C02EE4F601208331E404C02EE6F6011C
:102F6000208331E631832283FC012B2D30E22223A2
:102F7000F1F131932150FBCF72FF40C0662311F075
:102F800084E001C083E08B1510F4B81A01C0B12CA5
:102F9000A1110BC0F6018B2D90E2882319F09193BB
:102FA0008150FBCFCB0CD11CB12C662331F0F60144
:102FB000608396012F5F3F4F6901C6010396E2FED1
:102FC00007C029E4F60120832EE4218326E406C00D
:102FD00029E6F60120832EE6218326E62283FC01E2
:102FE0002B2D30E2222319F031932150FBCFFC012D
:102FF000EB0DF11D10828EEF9FEFB7C0B1E06111B4
:1030000001C0B0E04B2F50E01816190624F49C01C3
:103010002F5F3F4F02C021E030E0240F351F112306
:1030200029F0412F50E04F5F5F4F02C040E050E079
:10303000420F531F2B2D30E04217530714F4B41ADC
:1030400001C0B12C2E2D287159F4F6012B2D30E240
:10305000222319F031932150FBCFCB0CD11CB12C82
:10306000BB2331F0F601608396012F5F3F4F69016A
:10307000A1110BC0F6012B2D30E3222319F031935F
:103080002150FBCFCB0CD11CB12CF80E0A81372F6D
:103090003071A32E74FF03C0013309F4FA941F1496
:1030A0002CF42F2D293018F028E001C021E0682FE2
:1030B000392F97FF02C060E030E0462F532F612C7C
:1030C000712C3EE2932EBC01621B71099B01DC0155
:1030D000A41BB50BE1E0F0E0EC0FFD1FAE0FBF1F2E
:1030E000E12EF12CF194E194F1084F3FFFEF5F07DF
:1030F00031F4F6019082B6016F5F7F4F6B01841748
:1031000095074CF02417350734F4BD01660D771D83
:10311000FB01118101C010E341505109FFEF6F1A0B
:103120007F0AB6016F5F7F4F4E155F0524F0F601F1
:1031300010836B01DACF4817590739F4063320F4AE
:10314000053319F4A11001C011E3F6011083FB014E
:103150008B2D90E2882319F091938150FBCFFB01D6
:10316000EB0DF11D108280E090E029960FB6F894E7
:10317000DEBF0FBECDBFDF91CF911F910F91FF90AA
:10318000EF90DF90CF90BF90AF909F907F906F9027
:103190000895283008F027E03327DA01990F311D10
:1031A00087FD916000966105710539F432602E5FEC
:1031B0003D9330E32A95E1F708959F3F30F0803842
:1031C0007105610509F03C5F3C5F3D93913008F06B
:1031D0008068911DDF93CF931F930F93FF92EF921F
:1031E000192F987F9695E92F96959695E90FFF27C9
:1031F000E45EFE4F99273327EE24FF24A701E70161
:1032000005900894079428F4360FE71EF81E491F0E
:10321000511D660F771F881F991F0694A1F705900F
:10322000079428F4E70EF81E491F561FC11D770F9B
:10323000881F991F661F0694A1F70590079428F42C
:10324000F80E491F561FC71FD11D880F991F661FF3
:10325000771F0694A1F70590079420F4490F561F95
:10326000C71FD81F990F661F771F881F0694A9F7DD
:1032700084911095177041F0D695C795579547954D
:10328000F794E7941A95C1F7E2ECF0E06894159092
:10329000159135916591959105907FE27395E118AF
:1032A000F10A430B560BC90BD009C0F7E10CF11E14
:1032B000431F561FC91FD01D7EF4703311F48A9529
:1032C000E6CFE894015030F0080F0AF40027021707
:1032D00008F4202F2395022F7A3328F079E37D9389
:1032E0002A95E9F710C07D932A9589F6069497955B
:1032F0006795379517951794E118F10A430B560B0C
:10330000C90BD00998F023957E9173957A3308F014
:1033100070E37C932013B8F77E9170617D9330F059
:10332000839571E37D9370E32A95E1F71124EF9083
:10333000FF900F911F91CF91DF91992787FD909575
:103340000895FC010590615070400110D8F78095F8
:1033500090958E0F9F1F0895FC0161507040019061
:103360000110D8F7809590958E0F9F1F08950F93A9
:103370001F93CF93DF93182F092FEB018B8181FDD2
:1033800003C08FEF9FEF20C082FF10C04E815F818E
:103390002C813D81421753077CF4E881F9819F011C
:1033A0002F5F3F4F39832883108306C0E885F98556
:1033B000812F0995892B29F72E813F812F5F3F4F60
:1033C0003F832E83812F902FDF91CF911F910F91FB
:1033D0000895FA01AA27283051F1203181F1E894AB
:1033E0006F936E7F6E5F7F4F8F4F9F4FAF4FB1E0F8
:1033F0003ED0B4E03CD0670F781F891F9A1FA11DF3
:10340000680F791F8A1F911DA11D6A0F711D811DF3
:10341000911DA11D20D009F468943F912AE0269FB8
:1034200011243019305D3193DEF6CF010895462F17
:103430004770405D4193B3E00FD0C9F7F6CF462FF8
:103440004F70405D4A3318F0495D31FD4052419361
:1034500002D0A9F7EACFB4E0A6959795879577951E
:103460006795BA95C9F700976105710508959B01A5
:10347000AC010A2E06945795479537952795BA952E
:10348000C9F7620F731F841F951FA01D08952F9207
:103490003F924F925F926F927F928F929F92AF92E4
:1034A000BF92CF92DF92EF92FF920F931F93CF9331
:1034B000DF93CDB7DEB7CA1BDB0B0FB6F894DEBFC8
:1034C0000FBECDBF09942A88398848885F846E84EE
:1034D0007D848C849B84AA84B984C884DF80EE8038
:1034E000FD800C811B81AA81B981CE0FD11D0FB641
:1034F000F894DEBF0FBECDBFED010895F894FFCF65
:10350000010000000101F40101AF01B901C3010193
:103510000000400014005400547970653A00566F62
:103520006C74733A20200043656C6C733A20200061
:103530006D413A005620002063656C6C200040000D
:103540006D612000476F2F517569743F00257356D8
:103550002025696D410068002530326968202530DA
:1035600032696D2025303269730020202020202010
:10357000202020202000456C617073656420546910
:103580006D6520286D73292C4261747465727920F1
:10359000566F6C74616765202856292C204375721C
:1035A00072656E74204472617720286D4129004C49
:1035B00069506F2020202020004C65616420416309
:1035C0006964004C6946652020202020000000002E
:1035D00000BC078F0764076C077F078E0700000099
:1035E00000630A2D1000000000B10E2D10330E4CA8
:1035F0000E3E0E8F0E6E616E00696E66006F76660F
:04360000002E000098
:00000001FF
