:100000000C9462000C948A000C948A000C948A0070
:100010000C948A000C948A000C948A000C948A0038
:100020000C948A000C948A000C948A000C948A0028
:100030000C948A000C948A000C948A000C948A0018
:100040000C9478030C948A000C948A000C948A0017
:100050000C948A000C948A000C948A000C948A00F8
:100060000C944E050C948A0000000000230026002A
:10007000290004040404040404040202020202022B
:10008000030303030303010204081020408001025C
:1000900004081020010204081020000000080002DB
:1000A0000100000304070000000000000000000041
:1000B0000000240027002A0000000000250028007E
:1000C0002B00E50611241FBECFEFD8E0DEBFCDBF69
:1000D00023E0A2EBB1E001C01D92A133B207E1F72A
:1000E00011E0A0E0B1E0E4E7F3E202C005900D9278
:1000F000A23BB107D9F710E0C2E6D0E004C02197D7
:10010000FE010E947C0CC136D107C9F70E94380756
:100110000C94B8110C940000CF92DF92EF92FF92F2
:100120000F931F93CF93DF936C017A018B01C0E093
:10013000D0E0CE15DF0589F0D8016D918D01D60193
:10014000ED91FC910190F081E02DC6010995892B7C
:1001500011F47E0102C02196ECCFC701DF91CF914F
:100160001F910F91FF90EF90DF90CF900895CF9364
:10017000C82F682F607F85EC91E00E94270480E102
:10018000C89FB001112485EC91E0CF910C94270415
:10019000E5ECF1E08681982F926096838A600C945A
:1001A000B700CF93DF93EC0161E086E00E94D902B3
:1001B000209711F460E004C0CF3FD10531F461E035
:1001C00086E0DF91CF910C94A902E0EAF0E0E4919F
:1001D000E330F9F048F4E130B9F0E230A1F584B54C
:1001E000806284BDC8BD34C0E730E9F0E83019F161
:1001F000E43049F580918000806280938000D09344
:100200008B00C0938A0024C084B5806884BDC7BDBC
:100210001FC080918000806880938000D093890007
:10022000C093880015C08091B00080688093B000B2
:10023000C093B3000DC08091B00080628093B00085
:10024000C093B40005C0C038D1050CF0B8CFB2CF10
:10025000DF91CF9108950E948B0ECF93DF93CDB79E
:10026000DEB728970FB6F894DEBF0FBECDBF98E07B
:10027000E5E0F1E0DE01119601900D929A95E1F72B
:100280009091CD01961710F46FEF690FFE01319632
:10029000E60FF11DE60FF11D9081890F8068289609
:1002A0000FB6F894DEBF0FBECDBFDF91CF910C9497
:1002B000B700009769F0FC0101900020E9F7319741
:1002C000AF01481B590BBC0185EC91E00C948C00EC
:1002D00080E090E0089581E00E94B7008BE39FE109
:1002E0000197F1F70895E5ECF1E086818D7F868333
:1002F00088600C94B700CF93DF93282F30E0F9018A
:10030000E656FF4F8491F901EA57FF4FD491F90166
:10031000EE58FF4FC491CC2391F081110E948002CE
:10032000EC2FF0E0EE0FFF1FE859FF4FA591B491BD
:10033000EC91ED2381E090E021F480E002C080E0C8
:1003400090E0DF91CF9108953FB7F89480912D030D
:1003500090912E03A0912F03B091300326B5A89B56
:1003600005C02F3F19F00196A11DB11D3FBFBA2F47
:10037000A92F982F8827820F911DA11DB11DBC01A7
:10038000CD0142E0660F771F881F991F4A95D1F76C
:10039000089585ED8093BC008091BC0084FDFCCF66
:1003A0001092B40108954091BD02262F30E0240F31
:1003B000311D21323105DCF42091B4012430C9F41F
:1003C000FC0180E090E0861758F43091BD02219145
:1003D000DC01A556BD4FA30FB11D2C930196F3CFA1
:1003E0008091BD02680F6093BD0280E0089581E0B6
:1003F000089582E00895089581E090E03091B80179
:100400002091B701321710F480E090E0919581952A
:10041000910908958091B8019091B701891730F43E
:100420008F5F8093B80180E090E008958FEF9FEF99
:1004300008958091B70190E02091B801821B910945
:100440000895CF92DF92EF92FF920F931F93CF9375
:10045000DF937C01262F972F8A0180910603882342
:1004600091F0C62FD72F6E01C40ED51ECC15DD0519
:1004700071F06991D701ED91FC910190F081E02D2F
:10048000C7010995F3CF642F822F0E94D301C801C1
:10049000DF91CF911F910F91FF90EF90DF90CF9060
:1004A0000895CF93DF931F92CDB7DEB76983209174
:1004B00006032223D1F02091B501203240F021E043
:1004C00030E0FC013383228380E090E015C080910E
:1004D000B601E82FF0E0E95FFC4F998190838F5FD0
:1004E0008093B6018093B50105C061E0CE0101960D
:1004F0000E94D30181E090E00F90DF91CF910895A9
:10050000833081F028F4813099F08230A1F0089591
:100510008730A9F08830B9F08430D1F48091800020
:100520008F7D03C0809180008F7780938000089535
:1005300084B58F7702C084B58F7D84BD0895809186
:10054000B0008F7703C08091B0008F7D8093B000A2
:1005500008951F93CF93DF93282F30E0F901E656DB
:10056000FF4F8491F901EA57FF4FD491F901EE58FA
:10057000FF4FC491CC23C9F0162F81110E94800235
:10058000EC2FF0E0EE0FFF1FE854FF4FA591B49160
:100590008FB7F894111105C09C91ED2FE095E923D8
:1005A00002C0EC91ED2BEC938FBFDF91CF911F91A7
:1005B0000895CF93DF9390E0FC01EA57FF4F249119
:1005C000FC01EE58FF4F8491882361F190E0880F81
:1005D000991FFC01E255FF4FC591D491FC01E854ED
:1005E000FF4FA591B491611109C09FB7F89488811C
:1005F000209582238883EC912E230BC0623061F416
:100600009FB7F8943881822F809583238883EC915B
:100610002E2B2C939FBF06C08FB7F894E8812E2B0A
:1006200028838FBFDF91CF9108958E3008F08E50D0
:1006300087702091000190E4299F90011124822B62
:1006400080937C0080917A00806480937A0080910E
:100650007A0086FDFCCF809178002091790090E0AF
:10066000922B08958F929F92AF92BF92CF92DF927A
:10067000EF92FF926B017C010E94A4014B015C018F
:10068000C114D104E104F104F1F00E94A401DC01E1
:10069000CB0188199909AA09BB09883E9340A10595
:1006A000B10570F321E0C21AD108E108F10888EE23
:1006B000880E83E0981EA11CB11CC114D104E10472
:1006C000F10419F7DDCFFF90EF90DF90CF90BF904E
:1006D000AF909F908F9008952FB7F8946091290361
:1006E00070912A0380912B0390912C032FBF0895C2
:1006F0001F920F920FB60F9211242F933F938F9357
:100700009F93AF93BF938091290390912A03A09167
:100710002B03B0912C033091280323E0230F2D37B6
:1007200020F40196A11DB11D05C026E8230F0296F5
:10073000A11DB11D209328038093290390932A03C0
:10074000A0932B03B0932C0380912D0390912E0343
:10075000A0912F03B09130030196A11DB11D80938C
:100760002D0390932E03A0932F03B0933003BF91DA
:10077000AF919F918F913F912F910F900FBE0F904E
:100780001F901895CF93FC01C48121E020930603AC
:10079000C09327031092B6011092B5018385682B90
:1007A00089EB91E00E9451028091B501813208F0FD
:1007B00046C09091B4019111FCCF92E09093B401A6
:1007C00091E09093B3019FEF90930503109204037F
:1007D00080930303A7E0B3E023EE32E0F9019E2FFC
:1007E000921B981718F49D919193F9CF1092E20201
:1007F0008091E202CC0FC82BC093E2028091B2013B
:10080000813061F41092B2018091E2028093BB00CA
:100810008091BC0083FDF8CF85EC01C085EE80930C
:10082000BC008091B4018230E1F3809105038F3FD9
:1008300031F080910503803211F080910503109210
:10084000B6011092B50110920603CF9108950F934F
:100850001F93CF938C01C62F0E94C2036C2F64603C
:10086000C8010E94C2036C2F6B7FC8010E94C203A3
:1008700083EC90E00197F1F7CF911F910F910895CC
:100880000F931F93CF938C01C62F607F61600E94EE
:10089000270480E1C89FB00111246160C8010E9453
:1008A000270481E090E0CF911F910F910895FC0102
:1008B000868580FD04C083FB882780F9089580E049
:1008C00008950F931F93CF93DF93FC01268524FF98
:1008D0002CC0EC0184819581A681B781892B8A2B5C
:1008E0008B2BE9F00E946C030C811D812E813F81CE
:1008F000AB01BC01401B510B620B730B8A859B85BE
:10090000A0E0B0E0481759076A077B0770F00E9423
:100910006C036C837D838E839F8381E007C00E947C
:100920006C036C837D838E839F8380E0DF91CF9106
:100930001F910F910895CF92DF92EF92FF920F9344
:100940001F93CF93DF93EC018E8585FF16C01F8523
:10095000812F0E947B011E86812F0E947B01892BA3
:1009600011F083E08E870E946C03688379838A8309
:100970009B838E858F7D8E8788C08F850E947B01AB
:1009800011E0892B09F410E08E85982F977F9E87C0
:1009900086958170181751F00E946C0368837983E3
:1009A0008A839B839E8582E0892723C00E946C03F3
:1009B000C880D980EA80FB80AB01BC014C195D097D
:1009C0006E097F098C859D85A0E0B0E04817590726
:1009D0006A077B0778F08E858170811759F00E9435
:1009E0006C03688379838A839B839E8581E0892752
:1009F00088608E878E8583FF20C084FD1CC00E9486
:100A00006C030C811D812E813F81AB01BC01401B19
:100A1000510B620B730B88859985A0E0B0E04817F5
:100A200059076A077B0748F10E946C036C837D833A
:100A30008E839F8326C08F7E1FC08C819D81AE8157
:100A4000BF81892B8A2B8B2BE1F00E946C030C81D8
:100A50001D812E813F81AB01BC01401B510B620BFC
:100A6000730B88859985A0E0B0E0481759076A079D
:100A70007B0738F08E8580618E871C821D821E82E6
:100A80001F828E8583FB882780F9DF91CF911F918C
:100A90000F91FF90EF90DF90CF9008951F920F92EB
:100AA0000FB60F9211242F933F934F935F936F9341
:100AB0007F938F939F93AF93BF93EF93FF93809117
:100AC000B900887F803609F49CC068F5883209F443
:100AD0005BC090F4803109F454C038F4882309F4E1
:100AE000F6C0883009F44DC0F6C0883109F44CC016
:100AF000803209F45DC0EFC0803409F468C048F466
:100B0000803309F455C0883309F0E5C080930503AC
:100B1000D8C0803509F44FC0883509F45DC08834E9
:100B200009F0D9C0D6C0883909F4C7C0A8F48837FD
:100B300009F467C038F4883609F463C0803709F4D3
:100B400060C0C9C0883809F4B8C0803909F45FC0F2
:100B5000803809F0C0C05BC0803B09F486C038F41F
:100B6000803A09F466C0883A09F47FC0B4C0803C7A
:100B700009F4A7C0883C09F4A4C0883B09F48AC0E2
:100B8000AAC08091E20210C09091040380910303F7
:100B9000981770F5E091040381E08E0F80930403B1
:100BA000F0E0ED51FD4F80818093BB0085EC86C065
:100BB000809305038EC0E091040381E08E0F809343
:100BC00004038091BB00F0E0ED51FD4F80839091D4
:100BD0000403809103036EC0E091040381E08E0F53
:100BE000809304038091BB00F0E0ED51FD4F8083C2
:100BF0008091B30181116DC081E08093B20184EADC
:100C000061C083E08093B4011092E102CFCF809164
:100C1000E102803208F051C0E091E10281E08E0FE4
:100C20008093E1028091BB00F0E0EF53FD4F8083A1
:100C3000BDCF85EC8093BC001092B4018091E1029D
:100C4000803230F4E091E102F0E0EF53FD4F10828A
:100C50006091E10270E0E091BF02F091C00281EC8E
:100C600092E009951092E10236C084E08093B401CD
:100C70001092BE021092BD02E091BB02F091BC0244
:100C800009958091BD02811105C081E08093BD026C
:100C900010929B02E091BE0281E08E0F8093BE0213
:100CA000F0E0E556FD4F80818093BB009091BE023D
:100CB0008091BD02981708F479CF85E88093BC0035
:100CC0000AC085EC8093BC001092B40104C010925D
:100CD00005030E94C901FF91EF91BF91AF919F91D0
:100CE0008F917F916F915F914F913F912F910F90D5
:100CF0000FBE0F901F901895DF92EF92FF920F9307
:100D00001F93CF93DF93CDB7DEB7A1970FB6F894BB
:100D1000DEBF0FBECDBF9C01E62ED72EF52E08EE0E
:100D200013E0B8010E94680CFB01DF92EF92609F14
:100D3000C001619F900D709F900D1124B901681B37
:100D4000790BCB016AE070E00E94680C7F936F938F
:100D5000FF93EF938AE991E09F938F938E010F5E4B
:100D60001F4F1F930F9349A30E94900EFF9249A11A
:100D70004F9389EA91E09F938F93CE0101967C0176
:100D80009F938F930E94900E0E946B01C8010E9456
:100D9000590161E080E00E942D01C7010E945901C4
:100DA0000E9473010FB6F894DEBF0FBECDBFA196AF
:100DB0000FB6F894DEBF0FBECDBFDF91CF911F916C
:100DC0000F91FF90EF90DF900895E9EBF1E013822F
:100DD000128288EE93E0A0E0B0E084839583A6833E
:100DE000B78381E191E091838083E5ECF1E01382A8
:100DF000128281E291E09183808387E2848380E1A3
:100E0000818782E082871386EBE8F2E0878764E1DE
:100E100070E07587648744EF51E05187408728EC84
:100E200030E033872287148215821682178280E28F
:100E30008687EBE7F2E099E09787758764875187AB
:100E4000408733872287148215821682178286870D
:100E5000EBE6F2E098E097877587648751874087D3
:100E60003387228714821582168217828687089517
:100E7000CF93DF93CDB7DEB7A4970FB6F894DEBF5C
:100E80000FBECDBF789484B5826084BD84B5816087
:100E900084BD85B5826085BD85B5816085BD809145
:100EA0006E00816080936E001092810080918100BD
:100EB00082608093810080918100816080938100B5
:100EC000809180008160809380008091B100846077
:100ED0008093B1008091B00081608093B0008091D8
:100EE0007A00846080937A0080917A008260809397
:100EF0007A0080917A00816080937A0080917A00F4
:100F0000806880937A001092C10083E08093000192
:100F100061E086E00E94D90262E082E00E94D9028C
:100F200062E089E00E94D90262E088E00E94D90272
:100F3000109266021092250280E090E00E94D1009B
:100F400060E086E00E94A9021092B8011092B701F9
:100F50001092B6011092B5011092B40181E0809315
:100F6000B3011092B20161E082E10E94A90261E046
:100F700083E10E94A9028091B9008E7F8093B9001D
:100F80008091B9008D7F8093B90088E48093B80088
:100F900085E48093BC001092CA018091CF01823019
:100FA00018F098E09093CA018093CD0162E370E05D
:100FB00080E090E00E9432036091D00185EC91E0E6
:100FC0000E94C20368EE73E080E090E00E9432036A
:100FD00060E385EC91E00E9427040BE416E4C8016D
:100FE0000197F1F760E385EC91E00E942704C801C6
:100FF0000197F1F760E385EC91E00E94270483E517
:1010000092E00197F1F760E285EC91E00E942704FD
:101010008091CA0180620E94B70084E08093CB0176
:101020008CE00E94B7000E946B0182E08093CC01AB
:1010300086E00E94B70082E00E94B7008BE39FE148
:101040000197F1F788E08093D00160E085EC91E0B2
:101050000E94C2038BE892E00E949B048BE792E01F
:101060000E949B048BE692E00E949B041092E40194
:1010700081E08093E3010E946C03609367027093A8
:1010800068028093690290936A0248EEC42E43E09E
:10109000D42E5AE0252E312C7E0121E1E20EF11CE6
:1010A0008E010F5F1F4F0E946C038090670290902B
:1010B0006802A0906902B0906A02AB01BC014819B5
:1010C00059096A097B094A3051056105710508F41F
:1010D000BEC3D501C4010A96A11DB11D809367024C
:1010E00090936802A0936902B0936A02B09066027E
:1010F00080E10E941503EB2DF0E0EE0FFF1FEA5D8B
:10110000FD4F9183808381E08B0D8F718093660208
:10111000B09025028FE00E941503EB2DF0E0EE0F5A
:10112000FF1FEB51FE4F9183808381E08B0D8F7108
:10113000809325028BE892E00E949B048BE792E06B
:101140000E949B048BE692E00E949B048091E40144
:10115000823009F43DC130F4882359F0813009F41C
:1011600062C075C3833009F4D5C1843009F4E9C283
:101170006EC38091E301882389F11092E30180E03E
:1011800090E00E94D1000E946C036093DF01709395
:10119000E0018093E1019093E201A5E2B1E0BF9309
:1011A000AF9389E291E09F938F931F930F930E94D7
:1011B000900E0E946B010E94730183E391E00E94F4
:1011C000590161E080E00E942D01C8010E9459018F
:1011D0000F900F900F900F900F900F900E946C0344
:1011E0008090DF019090E001A090E101B090E201D9
:1011F000DC01CB0188199909AA09BB09883B9B40EE
:10120000A105B10508F423C38091CB01982F91600B
:101210009093CB0189600E94B70081E08093E40144
:101220008093E30114C39091E301992391F010920C
:10123000E3011092DE0128EB3BE03093DD012093C7
:10124000DC0124E630E03093DB012093DA01809367
:10125000D901B090DE01B11032C08BE892E00E945B
:1012600057048111FCC28BE892E00E946104811155
:10127000F6C2A090DC01B090DD0150EBA51656E35C
:10128000B50680F48BE792E00E9457048111EDC20D
:101290008BE792E00E9461048111E7C2A114B104BE
:1012A00009F440C08BE692E00E9457048111E1C22C
:1012B0008BE692E00E9461048111DBC233C081E0C1
:1012C000B81230C08BE892E00E945704882329F0BE
:1012D000B092E30182E08093E401A090DA01B09043
:1012E000DB0198EEA91693E0B90680F48BE792E053
:1012F0000E9457048111C8C28BE792E00E946104EA
:101300008111C2C2A3E3AA16B10460F08BE692E099
:101310000E9457048111BCC28BE692E00E946104D6
:101320008111B6C28091D901882309F490C210922C
:10133000D901B090DE01A090DA019090DB012091FC
:10134000DC013091DD01C901B6010E94680CFB018E
:101350006C9DC0016D9D900D7C9D900D1124D90157
:10136000A81BB90BCD01B1010E94680C7F936F934C
:10137000FF93EF9384E491E09F938F93FF92EF921A
:101380000E94900E9F92AF9285E591E09F938F937C
:101390001F930F930E94900E0E946B010E94C80041
:1013A000C7010E94590161E080E00E942D01C8013F
:1013B0000E9459010FB6F894DEBF0FBECDBFB11029
:1013C00003C060E086E041C251E0B512A0C038C25F
:1013D0008091E301882339F01092E3011092DE013D
:1013E00081E08093D9018091DE01811117C08BE7E4
:1013F00092E00E945704811153C28BE692E00E9452
:10140000570481114DC28BE892E00E945704882353
:10141000F1F081E08093E30183E017C08130B9F4FB
:101420008BE792E00E945704811140C28BE692E064
:101430000E94570481113AC28BE892E00E9457043F
:10144000882329F081E08093E3018093E401809177
:10145000D901882309F4FBC11092D901B090DE01B3
:10146000A090DA019090DB012091DC013091DD0148
:10147000C901B6010E94680CFB016C9DC0016D9D05
:10148000900D7C9D900D1124D901A81BB90BCD01A5
:10149000B1010E94680C7F936F93FF93EF93A0E6D6
:1014A000B1E0BF93AF93FF92EF920E94900E9F9294
:1014B000AF92A4E7B1E0BF93AF931F930F930E9445
:1014C000900E0E946B010E94C800C7010E94590142
:1014D00061E080E00E942D01C8010E94590161E095
:1014E00088E00E942D018AE791E00E9459010FB621
:1014F000F894DEBF0FBECDBFB11003C061E08CE039
:10150000A4C151E0B51203C061E08EE09EC10E940B
:1015100073019DC18091E3018823E9F11092E301F9
:101520000E946C036093DF017093E0018093E101FE
:101530009093E201E6E2F2E01192119282E0E63647
:10154000F807D1F7E5EEF1E01192119292E0E53261
:10155000F907D1F740E050E060E070E080E090E013
:101560000E947C061092D5011092D6011092D701EC
:101570001092D8012091DA013091DB01ADE6B0E0A4
:101580000E94721128EE33E040E050E00E943111D9
:10159000C9010E94D1000E946C038090DF019090ED
:1015A000E001A090E101B090E201AB01BC0148195B
:1015B00059096A097B094A3F51056105710508F41B
:1015C00046C1D501C40186509F4FAF4FBF4F809396
:1015D000DF019093E001A093E101B093E201E6E224
:1015E000F2E040E050E0BA0181919191480F591F1B
:1015F000611D711DA2E0E636FA07B1F795E0769518
:101600006795579547959A95D1F7BA0180E090E094
:101610000E94900D2AEA31EF42E85FE30E94EF0C4E
:101620002EE93EE045E651E40E941E0E0E94610D47
:101630004B015C017093D4016093D301E5EEF1E0BE
:1016400040E050E0BA0181919191480F591F611D0E
:10165000711DB2E0E532FB07B1F785E0769567953D
:10166000579547958A95D1F7BA0180E090E00E949E
:10167000900D2AEA31EF42E85FE30E94EF0C23E489
:1016800036E54BEF5FE30E941E0E0E94610D7093E2
:10169000D2016093D10180E090E00E94900D27ED8F
:1016A00033EA40E050E40E94EF0C20E030E040E0FC
:1016B0005FE30E94830C2B013C0120E030E040E816
:1016C0005EE30E941E0E2091D5013091D60140911B
:1016D000D7015091D8010E94830C6093D50170937B
:1016E000D6018093D7019093D80120E030E041E605
:1016F00055E40E94EF0C0E94610D69A37AA38BA3AD
:101700009CA3C301B2010E94610D49A15AA1C40169
:101710000E947C062091D3013091D4018091DC019C
:101720009091DD012817390708F091C080E090E022
:101730000E94D10081E08093E30184E08093E40182
:1017400086C08091E301882339F01092E301109262
:10175000DE0181E08093D9018091DE01811116C004
:101760008BE692E00E9457048111A6C08BE792E0BD
:101770000E9457048111A0C08BE892E00E94570498
:101780008823F1F081E08093E30118C08130C1F437
:101790008BE692E00E945704811194C08BE792E09F
:1017A0000E94570481118EC08BE892E00E9457047A
:1017B000882331F081E08093E30182E08093E401AB
:1017C0008091D901882309F442C01092D901B090C8
:1017D000DE0120E030E041E655E46091D5017091F2
:1017E000D6018091D7019091D8010E94EF0C0E9400
:1017F000610D7F936F93A2E8B1E0BF93AF931F9306
:101800000F930E94900E0E94C8000E946B01C801B5
:101810000E94590161E080E00E942D018EE891E074
:101820000E9459010F900F900F900F900F900F9002
:10183000B11003C061E080E008C041E0B41203C011
:1018400061E084E002C060E080E10E942D0180E060
:1018500090E0892B09F427CC0E94000024CC81E081
:101860008093DE018093D90104CD52E3A50EB11C13
:1018700003C082E3A81AB108B092DD01A092DC0196
:1018800081E08093D9014ECD95E0A90EB11C03C033
:10189000B5E0AB1AB108B092DB01A092DA01F0CF4B
:1018A00081E08093DE018093D901ADCD1092DE01FD
:1018B00081E08093D901C0CD81E08093DE018093E7
:1018C000D9015ACF1092DE0181E08093D9016CCF0B
:1018D000AA1BBB1B51E107C0AA1FBB1FA617B70756
:1018E00010F0A61BB70B881F991F5A95A9F7809572
:1018F0009095BC01CD010895EE0FFF1F0590F49166
:10190000E02D09945058BB27AA270E949A0C0C94EA
:10191000E40D0E94D60D38F00E94DD0D20F039F460
:101920009F3F19F426F40C94D30D0EF4E095E7FBD9
:101930000C94CD0DE92F0E94F50D58F3BA176207EC
:1019400073078407950720F079F4A6F50C94170E19
:101950000EF4E0950B2EBA2FA02D0B01B9019001CA
:101960000C01CA01A0011124FF27591B99F0593F0E
:1019700050F4503E68F11A16F040A22F232F342F56
:101980004427585FF3CF469537952795A795F040A4
:101990005395C9F77EF41F16BA0B620B730B840BB9
:1019A000BAF09150A1F0FF0FBB1F661F771F881F71
:1019B000C2F70EC0BA0F621F731F841F48F48795C9
:1019C00077956795B795F7959E3F08F0B0CF9395BB
:1019D000880F08F09927EE0F9795879508950E9434
:1019E000030D0C94E40D0E94DD0D58F00E94D60DFD
:1019F00040F029F45F3F29F00C94CD0D51110C9467
:101A0000180E0C94D30D0E94F50D68F39923B1F3D1
:101A1000552391F3951B550BBB27AA276217730714
:101A2000840738F09F5F5F4F220F331F441FAA1FA8
:101A3000A9F335D00E2E3AF0E0E832D09150504064
:101A4000E695001CCAF72BD0FE2F29D0660F771F12
:101A5000881FBB1F261737074807AB07B0E809F0F8
:101A6000BB0B802DBF01FF2793585F4F3AF09E3F7D
:101A7000510578F00C94CD0D0C94180E5F3FE4F3F3
:101A8000983ED4F3869577956795B795F7959F5FC0
:101A9000C9F7880F911D9695879597F90895E1E00C
:101AA000660F771F881FBB1F621773078407BA076B
:101AB00020F0621B730B840BBA0BEE1F88F7E095C6
:101AC00008950E94FD0D88F09F5798F0B92F99272F
:101AD000B751B0F0E1F0660F771F881F991F1AF019
:101AE000BA95C9F714C0B13091F00E94170EB1E059
:101AF00008950C94170E672F782F8827B85F39F058
:101B0000B93FCCF3869577956795B395D9F73EF4B1
:101B100090958095709561957F4F8F4F9F4F089559
:101B2000E89409C097FB3EF4909580957095619577
:101B30007F4F8F4F9F4F9923A9F0F92F96E9BB272D
:101B40009395F695879577956795B795F111F8CFA9
:101B5000FAF4BB0F11F460FF1BC06F5F7F4F8F4F14
:101B60009F4F16C0882311F096E911C0772321F00A
:101B70009EE8872F762F05C0662371F096E8862FA2
:101B800070E060E02AF09A95660F771F881FDAF7F9
:101B9000880F9695879597F9089597F99F6780E83C
:101BA00070E060E008959FEF80EC089500240A94AF
:101BB0001616170618060906089500240A94121628
:101BC0001306140605060895092E0394000C11F45B
:101BD000882352F0BB0F40F4BF2B11F460FF04C008
:101BE0006F5F7F4F8F4F9F4F089557FD9058440F61
:101BF000551F59F05F3F71F04795880F97FB991F6C
:101C000061F09F3F79F08795089512161306140628
:101C1000551FF2CF4695F1DF08C0161617061806B5
:101C2000991FF1CF86957105610508940895E89490
:101C3000BB2766277727CB0197F908950E94310EBD
:101C40000C94E40D0E94D60D38F00E94DD0D20F0BA
:101C5000952311F00C94CD0D0C94D30D11240C94FC
:101C6000180E0E94F50D70F3959FC1F3950F50E08B
:101C7000551F629FF001729FBB27F00DB11D639F3E
:101C8000AA27F00DB11DAA1F649F6627B00DA11DE4
:101C9000661F829F2227B00DA11D621F739FB00D8A
:101CA000A11D621F839FA00D611D221F749F3327FA
:101CB000A00D611D231F849F600D211D822F762F93
:101CC0006A2F11249F5750409AF0F1F088234AF070
:101CD000EE0FFF1FBB1F661F771F881F91505040DC
:101CE000A9F79E3F510580F00C94CD0D0C94180E71
:101CF0005F3FE4F3983ED4F3869577956795B79563
:101D0000F795E7959F5FC1F7FE2B880F911D96957C
:101D1000879597F9089581E090E0F8940C94B811B4
:101D2000AEE0B0E0E6E9FEE00C948F110D891E896B
:101D300086E08C831A8309838FEF9FE79E838D83D0
:101D4000AE01475E5F4F6F89788DCE0101960E948C
:101D5000B30E2F813885F801E20FF31F10822E9603
:101D6000E4E00C94AB11ACE0B0E0E9EBFEE00C94E5
:101D700081117C016B018A01FC011782168283812B
:101D800081FFBDC1CE0101964C01F7019381F6019F
:101D900093FD859193FF81916F01882309F4ABC175
:101DA000853239F493FD859193FF81916F018532DE
:101DB00029F4B70190E00E949B10E7CF512C312C01
:101DC00020E02032A0F48B3269F030F4803259F0F8
:101DD000833269F420612CC08D3239F0803339F4BC
:101DE000216026C02260246023C0286021C027FD16
:101DF00027C030ED380F3A3078F426FF06C0FAE0FD
:101E00005F9E300D1124532E13C08AE0389E300D92
:101E10001124332E20620CC08E3221F426FD6BC1BA
:101E2000206406C08C3611F4206802C0883641F464
:101E3000F60193FD859193FF81916F018111C1CFCF
:101E4000982F9F7D9554933028F40C5F1F4FFFE32C
:101E5000F9830DC0833631F0833771F0833509F093
:101E60005BC022C0F801808189830E5F1F4F44242C
:101E70004394512C540115C03801F2E06F0E711CCF
:101E8000F801A080B18026FF03C0652D70E002C07C
:101E90006FEF7FEFC5012C870E9490102C0183010A
:101EA0002C852F77222E17C03801F2E06F0E711C9F
:101EB000F801A080B18026FF03C0652D70E002C04C
:101EC0006FEF7FEFC5012C870E9485102C012C85B8
:101ED0002068222E830123FC1BC0832D90E048162E
:101EE0005906B0F4B70180E290E00E949B103A944A
:101EF000F4CFF50127FC859127FE81915F01B701A1
:101F000090E00E949B1031103A94F1E04F1A510872
:101F10004114510471F7E5C0843611F0893639F562
:101F2000F80127FF07C060817181828193810C5F76
:101F30001F4F08C060817181072E000C880B990B20
:101F40000E5F1F4F2F76722E97FF09C090958095D8
:101F5000709561957F4F8F4F9F4F2068722E2AE0BA
:101F600030E0A4010E94D310A82EA81844C08537E1
:101F700029F42F7EB22E2AE030E025C0F22FF97F1F
:101F8000BF2E8F36C1F018F4883579F0B4C0803791
:101F900019F0883721F0AFC02F2F2061B22EB4FE88
:101FA0000DC08B2D8460B82E09C024FF0AC09F2F5E
:101FB0009660B92E06C028E030E005C020E130E090
:101FC00002C020E132E0F801B7FE07C060817181F4
:101FD000828193810C5F1F4F06C06081718180E018
:101FE00090E00E5F1F4FA4010E94D310A82EA818E6
:101FF000FB2DFF777F2E76FE0BC0372D3E7FA5147D
:1020000050F474FE0AC072FC08C0372D3E7E05C035
:10201000BA2C372D03C0BA2C01C0B52C34FF0DC02B
:10202000FE01EA0DF11D8081803311F4397E09C073
:1020300032FF06C0B394B39404C0832F867809F0AE
:10204000B39433FD13C030FF06C05A2CB31418F4F8
:10205000530C5B18B32CB31468F4B70180E290E022
:102060003C870E949B10B3943C85F5CFB31410F4C9
:102070003B1801C0312C34FF12C0B70180E390E05F
:102080003C870E949B103C8532FF17C031FD03C086
:1020900088E790E002C088E590E0B7010CC0832F8C
:1020A000867859F031FF02C08BE201C080E237FD33
:1020B0008DE2B70190E00E949B10A51438F4B7019F
:1020C00080E390E00E949B105A94F7CFAA94F40109
:1020D000EA0DF11D8081B70190E00E949B10A110D4
:1020E000F5CF332009F451CEB70180E290E00E9491
:1020F0009B103A94F6CFF7018681978102C08FEF4B
:102100009FEF2C96E2E10C949D11FC01059061502B
:1021100070400110D8F7809590958E0F9F1F0895FD
:10212000FC016150704001900110D8F780959095A6
:102130008E0F9F1F08950F931F93CF93DF93FB0183
:10214000238121FD03C08FEF9FEF28C022FF16C01F
:1021500046815781248135814217530744F4A08179
:10216000B1819D012F5F3F4F318320838C93268166
:1021700037812F5F3F4F3783268310C0EB01092F34
:10218000182F0084F185E02D0995892BE1F68E81C9
:102190009F8101969F838E83812F902FDF91CF9116
:1021A0001F910F910895FA01AA27283051F120318B
:1021B00081F1E8946F936E7F6E5F7F4F8F4F9F4FDB
:1021C000AF4FB1E03ED0B4E03CD0670F781F891F1D
:1021D0009A1FA11D680F791F8A1F911DA11D6A0FEB
:1021E000711D811D911DA11D20D009F468943F919E
:1021F0002AE0269F11243019305D3193DEF6CF019D
:102200000895462F4770405D4193B3E00FD0C9F762
:10221000F6CF462F4F70405D4A3318F0495D31FDCF
:102220004052419302D0A9F7EACFB4E0A695979522
:10223000879577956795BA95C9F7009761057105F8
:1022400008959B01AC010A2E069457954795379542
:102250002795BA95C9F7620F731F841F951FA01D9C
:102260000895052E97FB1EF400940E94481157FD17
:1022700007D00E94501107FC03D04EF40C94481173
:1022800050954095309521953F4F4F4F5F4F0895A2
:1022900090958095709561957F4F8F4F9F4F0895D2
:1022A000A1E21A2EAA1BBB1BFD010DC0AA1FBB1F5A
:1022B000EE1FFF1FA217B307E407F50720F0A21BCC
:1022C000B30BE40BF50B661F771F881F991F1A9439
:1022D00069F760957095809590959B01AC01BD0163
:1022E000CF010895A29FB001B39FC001A39F700DBD
:1022F000811D1124911DB29F700D811D1124911D0E
:1023000008952F923F924F925F926F927F928F9299
:102310009F92AF92BF92CF92DF92EF92FF920F9374
:102320001F93CF93DF93CDB7DEB7CA1BDB0B0FB67E
:10233000F894DEBF0FBECDBF09942A88398848883B
:102340005F846E847D848C849B84AA84B984C884D1
:10235000DF80EE80FD800C811B81AA81B981CE0FC8
:10236000D11D0FB6F894DEBF0FBECDBFED010895AD
:04237000F894FFCF0F
:1023740001010000000000400014005400000000AF
:10238400005102210219020A02FC01FB01000000B3
:102394000040048C00322E310020202020202056C2
:1023A40025730020426174746572792054657374D6
:1023B400657220004375746F66663A2025692E2580
:1023C40030326956004C6F61643A2025696D4100D2
:1023D4004375746F66663A202532692E253032695A
:1023E4005620400025696D412E004F4B3F20592F48
:1023F4004E00446F6E652E2025696D4168004E6560
:10240400772F526573746172740025692E253032FA
:1024140069562C2025696D410025696D41682E207F
:022424000000B6
:107800000C94343C0C94513C0C94513C0C94513CE1
:107810000C94513C0C94513C0C94513C0C94513CB4
:107820000C94513C0C94513C0C94513C0C94513CA4
:107830000C94513C0C94513C0C94513C0C94513C94
:107840000C94513C0C94513C0C94513C0C94513C84
:107850000C94513C0C94513C0C94513C0C94513C74
:107860000C94513C0C94513C11241FBECFEFD8E036
:10787000DEBFCDBF11E0A0E0B1E0ECE9FFE702C060
:1078800005900D92A230B107D9F712E0A2E0B1E065
:1078900001C01D92AD30B107E1F70E942D3D0C945F
:1078A000CC3F0C94003C982F959595959595959582
:1078B000905D8F708A307CF0282F295A8091C0000B
:1078C00085FFFCCF9093C6008091C00085FFFCCF60
:1078D0002093C6000895282F205DF0CF982F809127
:1078E000C00085FFFCCF9093C6000895EF92FF92F1
:1078F0000F931F93EE24FF2487018091C00087FD22
:1079000017C00894E11CF11C011D111D81E4E8164B
:1079100082E4F8068FE0080780E0180770F3E09132
:107920000401F091050109958091C00087FFE9CF1E
:107930008091C6001F910F91FF90EF9008950E94D3
:10794000763C982F8091C00085FFFCCF9093C600B5
:1079500091362CF490330CF09053892F089597555D
:10796000892F08951F930E949F3C182F0E949F3CCF
:107970001295107F810F1F9108951F93182F882350
:1079800021F00E94763C1150E1F71F9108951F935A
:10799000182F0E94763C803249F0809103018F5F5E
:1079A000809303018530C1F01F9108958091C0003C
:1079B00085FFFCCF84E18093C6008091C00085FFE5
:1079C000FCCF1093C6008091C00085FFFCCF80E102
:1079D0008093C6001F910895E0910401F091050184
:1079E00009951F9108950E94763C803241F0809164
:1079F00003018F5F80930301853081F008958091AA
:107A0000C00085FFFCCF84E18093C6008091C00058
:107A100085FFFCCF80E18093C6000895E0910401CA
:107A2000F09105010995089540E951E08823A1F0FE
:107A30002D9A28EE33E0FA013197F1F721503040CA
:107A4000D1F72D9828EE33E0FA013197F1F7215064
:107A50003040D1F7815061F708953F924F925F9285
:107A60006F927F928F929F92AF92BF92CF92DF924E
:107A7000EF92FF920F931F93CF93DF93000080E16B
:107A80008093C4001092C50088E18093C10086E015
:107A90008093C2005098589A259A81E00E94143D24
:107AA00024E1F22E9EE1E92E85E9D82E0FE0C02ECA
:107AB00010E1B12EAA24A394B1E49B2EA6E58A2E50
:107AC000F2E57F2EE0E26E2E79E4572E63E5462E36
:107AD00050E5352E0E94763C8033B1F18133B9F107
:107AE000803409F46FC0813409F476C0823409F41B
:107AF00085C0853409F488C0803531F1823521F1A3
:107B0000813511F1853509F485C0863509F48DC0BC
:107B1000843609F496C0843709F403C1853709F423
:107B200072C1863709F466C0809103018F5F80932C
:107B30000301853079F6E0910401F0910501099582
:107B40000E94763C803351F60E94F33CC3CF0E94E2
:107B5000763C803249F78091C00085FFFCCFF092DF
:107B6000C6008091C00085FFFCCF9092C600809136
:107B7000C00085FFFCCF8092C6008091C00085FFC9
:107B8000FCCF7092C6008091C00085FFFCCF609250
:107B9000C6008091C00085FFFCCF5092C600809146
:107BA000C00085FFFCCF4092C6008091C00085FFD9
:107BB000FCCF3092C6008091C00085FFFCCFB09210
:107BC000C60088CF0E94763C863808F4BDCF0E945C
:107BD000763C0E94F33C7ECF0E94763C803809F4CC
:107BE0009CC0813809F40BC1823809F43CC1883942
:107BF00009F48FC080E00E94C73C6CCF84E10E94F2
:107C0000BD3C0E94F33C66CF85E00E94BD3C0E94D3
:107C1000F33C60CF0E94763C809306010E94763C44
:107C2000809307010E94F33C55CF0E94763C80333D
:107C300009F41DC183E00E94BD3C80E00E94C73C66
:107C400049CF0E94763C809309020E94763C809343
:107C5000080280910C028E7F80930C020E94763C79
:107C6000853409F415C18091080290910902892B8D
:107C700089F000E010E00E94763CF801E85FFE4FDA
:107C800080830F5F1F4F80910802909109020817AF
:107C9000190788F30E94763C803209F045CF809125
:107CA0000C0280FF01C16091060170910701660F0F
:107CB000771F7093070160930601A0910802B091AD
:107CC00009021097C9F0E8E0F1E09B01AD014E0F09
:107CD0005F1FF999FECF32BD21BD819180BDFA9A17
:107CE000F99A2F5F3F4FE417F50799F76A0F7B1F4B
:107CF00070930701609306018091C00085FFFCCF5F
:107D0000F092C6008091C00085FFFCCFB092C60003
:107D1000E1CE83E00E94C73CDDCE82E00E94C73CFA
:107D2000D9CE0E94763C809309020E94763C8093D3
:107D300008028091060190910701880F991F909386
:107D40000701809306010E94763C853409F4A6C0A1
:107D500080910C028E7F80930C020E94763C8032D0
:107D600009F0B8CE8091C00085FFFCCFF092C6002C
:107D7000609108027091090261157105B9F140E046
:107D800050E080910C02A82FA170B82FB27011C0E2
:107D9000BB2309F45CC0E0910601F0910701319624
:107DA000F0930701E09306014F5F5F4F46175707B7
:107DB000E8F4AA2369F3F999FECF209106013091E6
:107DC000070132BD21BDF89A90B58091C00085FFB2
:107DD000FCCF9093C6002F5F3F4F30930701209355
:107DE00006014F5F5F4F4617570718F38091C00099
:107DF00085FDE5CE8091C00085FFF8CFE0CE81E023
:107E00000E94C73C67CE0E94763C803209F08CCE3F
:107E10008091C00085FFFCCFF092C6008091C00029
:107E200085FFFCCFE092C6008091C00085FFFCCFAB
:107E3000D092C6008091C00085FFFCCFC092C600E2
:107E40008091C00085FFFCCFB092C60043CEE09188
:107E50000601F091070194918091C00085FFFCCF4D
:107E60009093C6009CCF80E10E94C73C33CE0E9415
:107E7000763C0E94763C182F0E94763C112309F430
:107E800083C0113009F484C08FE00E94C73C22CE29
:107E900080910C02816080930C02E5CE80910C02EF
:107EA000816080930C0259CF809107018823880F4D
:107EB000880B8A2180930B02809106019091070123
:107EC000880F991F90930701809306018091080203
:107ED00080FF09C080910802909109020196909359
:107EE000090280930802F894F999FECF1127E091D6
:107EF0000601F0910701C8E0D1E08091080290915D
:107F00000902103091F40091570001700130D9F34B
:107F100003E000935700E89500915700017001308D
:107F2000D9F301E100935700E89509901990009169
:107F3000570001700130D9F301E000935700E89534
:107F40001395103498F011270091570001700130FB
:107F5000D9F305E000935700E895009157000170B0
:107F60000130D9F301E100935700E895329602976A
:107F700009F0C7CF103011F00296E5CF112480919F
:107F8000C00085FFB9CEBCCE8EE10E94C73CA2CD19
:0C7F900085E90E94C73C9ECDF894FFCF0D
:027F9C00800063
:040000030000780081
:00000001FF