:100000000C945D000C9485000C9485000C94850084
:100010000C9485000C9485000C9485000C9485004C
:100020000C9485000C9485000C9485000C9485003C
:100030000C9485000C9485000C9485000C9485002C
:100040000C9416030C9485000C9485000C94850088
:100050000C9485000C9485000C9485000C9485000C
:100060000C9460030C94850000000000230026001F
:10007000290000000000250028002B0004040404CF
:100080000404040402020202020203030303030342
:10009000010204081020408001020408102001021F
:1000A00004081020000000080002010000030407FB
:1000B00000000000000000008E0411241FBECFEFDE
:1000C000D8E0DEBFCDBF11E0A0E0B1E0E8EDFBE09D
:1000D00002C005900D92A632B107D9F722E0A6E240
:1000E000B1E001C01D92AB30B207E1F710E0CDE501
:1000F000D0E004C02197FE010E94DF05CC35D10776
:10010000C9F70E94F7040C94EA050C940000CF9202
:10011000DF92EF92FF920F931F93CF93DF936C01C7
:100120007A018B01C0E0D0E0CE15DF0589F0D8015F
:100130006D918D01D601ED91FC910190F081E02D42
:10014000C6010995892B11F47E0102C02196ECCFDE
:10015000C701DF91CF911F910F91FF90EF90DF903A
:10016000CF900895833081F028F4813099F0823067
:10017000A1F008958730A9F08830B9F08430D1F427
:10018000809180008F7D03C0809180008F77809365
:100190008000089584B58F7702C084B58F7D84BDBB
:1001A00008958091B0008F7703C08091B0008F7D5B
:1001B0008093B0000895CF93DF93282F30E0F901AA
:1001C000EC55FF4F8491F901E057FF4FD491F901AD
:1001D000E458FF4FC491CC2389F081110E94B200F2
:1001E000EC2FF0E0EE0FFF1FEE58FF4FA591B491FA
:1001F0008FB7F894EC91ED2BEC938FBFDF91CF91FB
:100200000895CF93DF93282F30E0F901EC55FF4F8D
:100210008491F901E057FF4FD491F901E458FF4F61
:10022000C491CC2391F081110E94B200EC2FF0E038
:10023000EE0FFF1FE859FF4FA591B491EC91ED230C
:1002400081E090E021F480E002C080E090E0DF9166
:10025000CF9108953FB7F8948091B8019091B9017A
:10026000A091BA01B091BB0126B5A89B05C02F3F54
:1002700019F00196A11DB11D3FBFBA2FA92F982FCC
:100280008827820F911DA11DB11DBC01CD0142E047
:10029000660F771F881F991F4A95D1F708958F928F
:1002A0009F92AF92BF92CF92DF92EF92FF926B013B
:1002B0007C010E942A014B015C01C114D104E104BC
:1002C000F104F1F00E942A01DC01CB01881999099F
:1002D000AA09BB09883E9340A105B10570F321E04E
:1002E000C21AD108E108F10888EE880E83E0981E52
:1002F000A11CB11CC114D104E104F10419F7DDCF34
:10030000FF90EF90DF90CF90BF90AF909F908F9035
:1003100008950F931F93CF93DF931F92CDB7DEB74E
:100320008C01FC01638B862F69830E940101F80117
:10033000128A6981862F0E940101892B19F083E0BE
:10034000F801828B2FB7F8948091B4019091B50198
:10035000A091B601B091B7012FBFF80180839183BE
:10036000A283B3830F90DF91CF911F910F910895D6
:1003700085ED8093BC008091BC0084FDFCCF109281
:10038000BE01089540914801262F30E0240F311D11
:1003900021323105DCF42091BE012430C9F4FC0186
:1003A00080E090E0861758F4309148012191DC01FB
:1003B000AA5DBE4FA30FB11D2C930196F3CF809180
:1003C0004801680F6093480180E0089581E0089536
:1003D00082E00895089581E090E03091C20120917B
:1003E000C101321710F480E090E091958195910958
:1003F00008958091C2019091C101891730F48F5FF7
:100400008093C20180E090E008958FEF9FEF089500
:100410008091C10190E02091C201821B9109089551
:10042000CF92DF92EF92FF920F931F93CF93DF93C0
:100430007C01262F972F8A0180919101882391F0CA
:10044000C62FD72F6E01C40ED51ECC15DD0571F059
:100450006991D701ED91FC910190F081E02DC701E8
:100460000995F3CF642F822F0E94C201C801DF914A
:10047000CF911F910F91FF90EF90DF90CF90089553
:10048000CF93DF931F92CDB7DEB76983209191019F
:100490002223D1F02091BF01203240F021E030E052
:1004A000FC013383228380E090E015C08091C0017D
:1004B000E82FF0E0EE56FE4F998190838F5F809396
:1004C000C0018093BF0105C061E0CE0101960E948A
:1004D000C20181E090E00F90DF91CF910895CF931A
:1004E000FC01C48121E020939101C093B2011092DC
:1004F000C0011092BF018385682B83EC91E00E94BC
:1005000040028091BF01813208F046C09091BE0147
:100510009111FCCF92E09093BE0191E09093BD01C8
:100520009FEF9093900110928F0180938E01A2E92A
:10053000B1E02EE631E0F9019E2F921B981718F4D6
:100540009D919193F9CF10926D0180916D01CC0F27
:10055000C82BC0936D018091BC01813061F4109271
:10056000BC0180916D018093BB008091BC0083FD34
:10057000F8CF85EC01C085EE8093BC008091BE0170
:100580008230E1F3809190018F3F31F080919001B2
:10059000803211F0809190011092C0011092BF0141
:1005A00010929101CF9108950F931F93CF938C01D7
:1005B000C62F0E946F026C2F6460C8010E946F02F8
:1005C0006C2F6B7FC8010E946F0283EC90E0019753
:1005D000F1F7CF911F910F910895FF920F931F9301
:1005E000CF93DF931F92CDB7DEB78C01F62E962FF7
:1005F000907F692F642BC80149830E94D40280E157
:10060000F89EB00111244981642BC8010F90DF913D
:10061000CF911F910F91FF900C94D40241E00E9462
:10062000ED0281E090E008950E94E5051F920F928F
:100630000FB60F9211242F933F938F939F93AF93F5
:10064000BF938091B4019091B501A091B601B09192
:10065000B7013091B30123E0230F2D3720F4019629
:10066000A11DB11D05C026E8230F0296A11DB11DD5
:100670002093B3018093B4019093B501A093B60188
:10068000B093B7018091B8019091B901A091BA01DE
:10069000B091BB010196A11DB11D8093B80190934B
:1006A000B901A093BA01B093BB01BF91AF919F91E3
:1006B0008F913F912F910F900FBE0F901F90189523
:1006C0001F920F920FB60F9211242F933F934F93C7
:1006D0005F936F937F938F939F93AF93BF93EF93AA
:1006E000FF938091B900887F803609F49CC068F53B
:1006F000883209F45BC090F4803109F454C038F4B6
:10070000882309F4F6C0883009F44DC0F6C088315A
:1007100009F44CC0803209F45DC0EFC0803409F4A4
:1007200068C048F4803309F455C0883309F0E5C047
:1007300080939001D8C0803509F44FC0883509F402
:100740005DC0883409F0D9C0D6C0883909F4C7C063
:10075000A8F4883709F467C038F4883609F463C010
:10076000803709F460C0C9C0883809F4B8C080393E
:1007700009F45FC0803809F0C0C05BC0803B09F459
:1007800086C038F4803A09F466C0883A09F47FC01C
:10079000B4C0803C09F4A7C0883C09F4A4C0883BDD
:1007A00009F48AC0AAC080916D0110C090918F0198
:1007B00080918E01981770F5E0918F0181E08E0F86
:1007C00080938F01F0E0E259FE4F80818093BB005F
:1007D00085EC86C0809390018EC0E0918F0181E00E
:1007E0008E0F80938F018091BB00F0E0E259FE4FA5
:1007F000808390918F0180918E016EC0E0918F0176
:1008000081E08E0F80938F018091BB00F0E0E25970
:10081000FE4F80838091BD0181116DC081E0809386
:10082000BC0184EA61C083E08093BE0110926C0138
:10083000CFCF80916C01803208F051C0E0916C0103
:1008400081E08E0F80936C018091BB00F0E0E45B4F
:10085000FE4F8083BDCF85EC8093BC001092BE011B
:1008600080916C01803230F4E0916C01F0E0E45B47
:10087000FE4F108260916C0170E0E0914A01F091AE
:100880004B018CE491E0099510926C0136C084E034
:100890008093BE011092490110924801E0914601F7
:1008A000F0914701099580914801811105C081E0CF
:1008B0008093480110922601E091490181E08E0F5A
:1008C00080934901F0E0EA5DFE4F80818093BB0098
:1008D0009091490180914801981708F479CF85E8F3
:1008E0008093BC000AC085EC8093BC001092BE01CE
:1008F00004C0109290010E94B801FF91EF91BF9146
:10090000AF919F918F917F916F915F914F913F91A7
:100910002F910F900FBE0F901F901895EF92FF929E
:100920000F931F93CF93DF93E3ECF1E013821282D6
:1009300088EE93E0A0E0B0E084839583A683B7833C
:1009400084E091E091838083EFEFF1E013821282E3
:1009500084E191E09183808387E2848380E18187D1
:1009600082E08287138662E070E08FEE91E00E9461
:100970008901EFEEF1E084E1E82EF12CF18AE08AC2
:1009800004EF11E015870487C2E3D0E0D787C6875C
:10099000108611861286138669E070E08FED91E073
:1009A0000E948901EFEDF1E0F18AE08A1587048762
:1009B000D787C687108611861286138668E070E096
:1009C0008FEC91E00E948901EFECF1E0F18AE08A7E
:1009D00015870487D787C6871086118612861386E7
:1009E000DF91CF911F910F91FF90EF900895789430
:1009F00084B5826084BD84B5816084BD85B5826024
:100A000085BD85B5816085BD80916E0081608093D4
:100A10006E0010928100809181008260809381003D
:100A2000809181008160809381008091800081604D
:100A3000809380008091B10084608093B1008091A8
:100A4000B00081608093B00080917A0084608093D0
:100A50007A0080917A00826080937A0080917A0097
:100A6000816080937A0080917A00806880937A0018
:100A70001092C1001092C2011092C1011092C001E7
:100A80001092BF011092BE0181E08093BD011092CF
:100A9000BC0182E10E94DB0083E10E94DB008091C7
:100AA000B9008E7F8093B9008091B9008D7F8093CB
:100AB000B90088E48093B80085E48093BC0010926C
:100AC000040280910902823018F098E090930402A9
:100AD0008093070262E370E080E090E00E944F01A3
:100AE00060910A028FEF91E00E946F0268EE73E05E
:100AF00080E090E00E944F0160E38FEF91E00E9460
:100B0000D402CBE4D6E4CE010197F1F760E38FEF96
:100B100091E00E94D4022197F1F760E38FEF91E01A
:100B20000E94D40283E592E00197F1F760E28FEF33
:100B300091E00E94D40260910402606240E08FEF75
:100B400091E00E94ED0284E08093050240E06CE0B9
:100B50008FEF91E00E94ED0240E061E08FEF91E0C5
:100B60000E94ED02CBE3DFE1CE010197F1F782E0D5
:100B70008093060240E066E08FEF91E00E94ED0274
:100B800040E062E08FEF91E00E94ED022197F1F7E3
:100B900088E080930A0260E08FEF91E00E946F028C
:100BA0004DE050E068E171E08FEF91E00E94870036
:100BB000C0E0D0E02097F1F30E940000FBCFEE0FE1
:100BC000FF1F0590F491E02D099481E090E0F894E6
:080BD0000C94EA05F894FFCF34
:100BD80000000000400210020802F901EB01EA01DE
:100BE800000000000E03870048656C6C6F2C2077AE
:060BF8006F726C64210025
:00000001FF
