:100000000C945D000C9485000C9485000C94850084
:100010000C9485000C9485000C9485000C9485004C
:100020000C9485000C9485000C9485000C9485003C
:100030000C9485000C9485000C9485000C9485002C
:100040000C9416030C9485000C9485000C94850088
:100050000C9485000C9485000C9485000C9485000C
:100060000C9460030C94850000000000230026001F
:10007000290000000000250028002B0004040404CF
:100080000404040402020202020203030303030342
:10009000010204081020408001020408102001021F
:1000A00004081020000000080002010000030407FB
:1000B00000000000000000008E0411241FBECFEFDE
:1000C000D8E0DEBFCDBF11E0A0E0B1E0E8EDFBE09D
:1000D00002C005900D92A632B107D9F722E0A6E240
:1000E000B1E001C01D92AB30B207E1F710E0CDE501
:1000F000D0E004C02197FE010E94DF05CC35D10776
:10010000C9F70E94F7040C94EA050C940000CF9202
:10011000DF92EF92FF920F931F93CF93DF936C01C7
:100120007A018B01C0E0D0E0CE15DF0589F0D8015F
:100130006D918D01D601ED91FC910190F081E02D42
:10014000C6010995892B11F47E0102C02196ECCFDE
:10015000C701DF91CF911F910F91FF90EF90DF903A
:10016000CF900895833081F028F4813099F0823067
:10017000A1F008958730A9F08830B9F08430D1F427
:10018000809180008F7D03C0809180008F77809365
:100190008000089584B58F7702C084B58F7D84BDBB
:1001A00008958091B0008F7703C08091B0008F7D5B
:1001B0008093B0000895CF93DF93282F30E0F901AA
:1001C000EC55FF4F8491F901E057FF4FD491F901AD
:1001D000E458FF4FC491CC2389F081110E94B200F2
:1001E000EC2FF0E0EE0FFF1FEE58FF4FA591B491FA
:1001F0008FB7F894EC91ED2BEC938FBFDF91CF91FB
:100200000895CF93DF93282F30E0F901EC55FF4F8D
:100210008491F901E057FF4FD491F901E458FF4F61
:10022000C491CC2391F081110E94B200EC2FF0E038
:10023000EE0FFF1FE859FF4FA591B491EC91ED230C
:1002400081E090E021F480E002C080E090E0DF9166
:10025000CF9108953FB7F8948091B8019091B9017A
:10026000A091BA01B091BB0126B5A89B05C02F3F54
:1002700019F00196A11DB11D3FBFBA2FA92F982FCC
:100280008827820F911DA11DB11DBC01CD0142E047
:10029000660F771F881F991F4A95D1F708958F928F
:1002A0009F92AF92BF92CF92DF92EF92FF926B013B
:1002B0007C010E942A014B015C01C114D104E104BC
:1002C000F104F1F00E942A01DC01CB01881999099F
:1002D000AA09BB09883E9340A105B10570F321E04E
:1002E000C21AD108E108F10888EE880E83E0981E52
:1002F000A11CB11CC114D104E104F10419F7DDCF34
:10030000FF90EF90DF90CF90BF90AF909F908F9035
:1003100008950F931F93CF93DF931F92CDB7DEB74E
:100320008C01FC01638B862F69830E940101F80117
:10033000128A6981862F0E940101892B19F083E0BE
:10034000F801828B2FB7F8948091B4019091B50198
:10035000A091B601B091B7012FBFF80180839183BE
:10036000A283B3830F90DF91CF911F910F910895D6
:1003700085ED8093BC008091BC0084FDFCCF109281
:10038000BE01089540914801262F30E0240F311D11
:1003900021323105DCF42091BE012430C9F4FC0186
:1003A00080E090E0861758F4309148012191DC01FB
:1003B000AA5DBE4FA30FB11D2C930196F3CF809180
:1003C0004801680F6093480180E0089581E0089536
:1003D00082E00895089581E090E03091C20120917B
:1003E000C101321710F480E090E091958195910958
:1003F00008958091C2019091C101891730F48F5FF7
:100400008093C20180E090E008958FEF9FEF089500
:100410008091C10190E02091C201821B9109089551
:10042000CF92DF92EF92FF920F931F93CF93DF93C0
:100430007C01262F972F8A0180919101882391F0CA
:10044000C62FD72F6E01C40ED51ECC15DD0571F059
:100450006991D701ED91FC910190F081E02DC701E8
:100460000995F3CF642F822F0E94C201C801DF914A
:10047000CF911F910F91FF90EF90DF90CF90089553
:10048000CF93DF931F92CDB7DEB76983209191019F
:100490002223D1F02091BF01203240F021E030E052
:1004A000FC013383228380E090E015C08091C0017D
:1004B000E82FF0E0EE56FE4F998190838F5F809396
:1004C000C0018093BF0105C061E0CE0101960E948A
:1004D000C20181E090E00F90DF91CF910895CF931A
:1004E000FC01C48121E020939101C093B2011092DC
:1004F000C0011092BF018385682B83EC91E00E94BC
:1005000040028091BF01813208F046C09091BE0147
:100510009111FCCF92E09093BE0191E09093BD01C8
:100520009FEF9093900110928F0180938E01A2E92A
:10053000B1E02EE631E0F9019E2F921B981718F4D6
:100540009D919193F9CF10926D0180916D01CC0F27
:10055000C82BC0936D018091BC01813061F4109271
:10056000BC0180916D018093BB008091BC0083FD34
:10057000F8CF85EC01C085EE8093BC008091BE0170
:100580008230E1F3809190018F3F31F080919001B2
:10059000803211F0809190011092C0011092BF0141
:1005A00010929101CF9108950F931F93CF938C01D7
:1005B000C62F0E946F026C2F6460C8010E946F02F8
:1005C0006C2F6B7FC8010E946F0283EC90E0019753
:1005D000F1F7CF911F910F910895FF920F931F9301
:1005E000CF93DF931F92CDB7DEB78C01F62E962FF7
:1005F000907F692F642BC80149830E94D40280E157
:10060000F89EB00111244981642BC8010F90DF913D
:10061000CF911F910F91FF900C94D40241E00E9462
:10062000ED0281E090E008950E94E5051F920F928F
:100630000FB60F9211242F933F938F939F93AF93F5
:10064000BF938091B4019091B501A091B601B09192
:10065000B7013091B30123E0230F2D3720F4019629
:10066000A11DB11D05C026E8230F0296A11DB11DD5
:100670002093B3018093B4019093B501A093B60188
:10068000B093B7018091B8019091B901A091BA01DE
:10069000B091BB010196A11DB11D8093B80190934B
:1006A000B901A093BA01B093BB01BF91AF919F91E3
:1006B0008F913F912F910F900FBE0F901F90189523
:1006C0001F920F920FB60F9211242F933F934F93C7
:1006D0005F936F937F938F939F93AF93BF93EF93AA
:1006E000FF938091B900887F803609F49CC068F53B
:1006F000883209F45BC090F4803109F454C038F4B6
:10070000882309F4F6C0883009F44DC0F6C088315A
:1007100009F44CC0803209F45DC0EFC0803409F4A4
:1007200068C048F4803309F455C0883309F0E5C047
:1007300080939001D8C0803509F44FC0883509F402
:100740005DC0883409F0D9C0D6C0883909F4C7C063
:10075000A8F4883709F467C038F4883609F463C010
:10076000803709F460C0C9C0883809F4B8C080393E
:1007700009F45FC0803809F0C0C05BC0803B09F459
:1007800086C038F4803A09F466C0883A09F47FC01C
:10079000B4C0803C09F4A7C0883C09F4A4C0883BDD
:1007A00009F48AC0AAC080916D0110C090918F0198
:1007B00080918E01981770F5E0918F0181E08E0F86
:1007C00080938F01F0E0E259FE4F80818093BB005F
:1007D00085EC86C0809390018EC0E0918F0181E00E
:1007E0008E0F80938F018091BB00F0E0E259FE4FA5
:1007F000808390918F0180918E016EC0E0918F0176
:1008000081E08E0F80938F018091BB00F0E0E25970
:10081000FE4F80838091BD0181116DC081E0809386
:10082000BC0184EA61C083E08093BE0110926C0138
:10083000CFCF80916C01803208F051C0E0916C0103
:1008400081E08E0F80936C018091BB00F0E0E45B4F
:10085000FE4F8083BDCF85EC8093BC001092BE011B
:1008600080916C01803230F4E0916C01F0E0E45B47
:10087000FE4F108260916C0170E0E0914A01F091AE
:100880004B018CE491E0099510926C0136C084E034
:100890008093BE011092490110924801E0914601F7
:1008A000F0914701099580914801811105C081E0CF
:1008B0008093480110922601E091490181E08E0F5A
:1008C00080934901F0E0EA5DFE4F80818093BB0098
:1008D0009091490180914801981708F479CF85E8F3
:1008E0008093BC000AC085EC8093BC001092BE01CE
:1008F00004C0109290010E94B801FF91EF91BF9146
:10090000AF919F918F917F916F915F914F913F91A7
:100910002F910F900FBE0F901F901895EF92FF929E
:100920000F931F93CF93DF93E3ECF1E013821282D6
:1009300088EE93E0A0E0B0E084839583A683B7833C
:1009400084E091E091838083EFEFF1E013821282E3
:1009500084E191E09183808387E2848380E18187D1
:1009600082E08287138662E070E08FEE91E00E9461
:100970008901EFEEF1E084E1E82EF12CF18AE08AC2
:1009800004EF11E015870487C2E3D0E0D787C6875C
:10099000108611861286138669E070E08FED91E073
:1009A0000E948901EFEDF1E0F18AE08A1587048762
:1009B000D787C687108611861286138668E070E096
:1009C0008FEC91E00E948901EFECF1E0F18AE08A7E
:1009D00015870487D787C6871086118612861386E7
:1009E000DF91CF911F910F91FF90EF900895789430
:1009F00084B5826084BD84B5816084BD85B5826024
:100A000085BD85B5816085BD80916E0081608093D4
:100A10006E0010928100809181008260809381003D
:100A2000809181008160809381008091800081604D
:100A3000809380008091B10084608093B1008091A8
:100A4000B00081608093B00080917A0084608093D0
:100A50007A0080917A00826080937A0080917A0097
:100A6000816080937A0080917A00806880937A0018
:100A70001092C1001092C2011092C1011092C001E7
:100A80001092BF011092BE0181E08093BD011092CF
:100A9000BC0182E10E94DB0083E10E94DB008091C7
:100AA000B9008E7F8093B9008091B9008D7F8093CB
:100AB000B90088E48093B80085E48093BC0010926C
:100AC000040280910902823018F098E090930402A9
:100AD0008093070262E370E080E090E00E944F01A3
:100AE00060910A028FEF91E00E946F0268EE73E05E
:100AF00080E090E00E944F0160E38FEF91E00E9460
:100B0000D402CBE4D6E4CE010197F1F760E38FEF96
:100B100091E00E94D4022197F1F760E38FEF91E01A
:100B20000E94D40283E592E00197F1F760E28FEF33
:100B300091E00E94D40260910402606240E08FEF75
:100B400091E00E94ED0284E08093050240E06CE0B9
:100B50008FEF91E00E94ED0240E061E08FEF91E0C5
:100B60000E94ED02CBE3DFE1CE010197F1F782E0D5
:100B70008093060240E066E08FEF91E00E94ED0274
:100B800040E062E08FEF91E00E94ED022197F1F7E3
:100B900088E080930A0260E08FEF91E00E946F028C
:100BA0004DE050E068E171E08FEF91E00E94870036
:100BB000C0E0D0E02097F1F30E940000FBCFEE0FE1
:100BC000FF1F0590F491E02D099481E090E0F894E6
:080BD0000C94EA05F894FFCF34
:100BD80000000000400210020802F901EB01EA01DE
:100BE800000000000E03870048656C6C6F2C2077AE
:060BF8006F726C64210025
:107800000C94343C0C94513C0C94513C0C94513CE1
:107810000C94513C0C94513C0C94513C0C94513CB4
:107820000C94513C0C94513C0C94513C0C94513CA4
:107830000C94513C0C94513C0C94513C0C94513C94
:107840000C94513C0C94513C0C94513C0C94513C84
:107850000C94513C0C94513C0C94513C0C94513C74
:107860000C94513C0C94513C11241FBECFEFD8E036
:10787000DEBFCDBF11E0A0E0B1E0ECE9FFE702C060
:1078800005900D92A230B107D9F712E0A2E0B1E065
:1078900001C01D92AD30B107E1F70E942D3D0C945F
:1078A000CC3F0C94003C982F959595959595959582
:1078B000905D8F708A307CF0282F295A8091C0000B
:1078C00085FFFCCF9093C6008091C00085FFFCCF60
:1078D0002093C6000895282F205DF0CF982F809127
:1078E000C00085FFFCCF9093C6000895EF92FF92F1
:1078F0000F931F93EE24FF2487018091C00087FD22
:1079000017C00894E11CF11C011D111D81E4E8164B
:1079100082E4F8068FE0080780E0180770F3E09132
:107920000401F091050109958091C00087FFE9CF1E
:107930008091C6001F910F91FF90EF9008950E94D3
:10794000763C982F8091C00085FFFCCF9093C600B5
:1079500091362CF490330CF09053892F089597555D
:10796000892F08951F930E949F3C182F0E949F3CCF
:107970001295107F810F1F9108951F93182F882350
:1079800021F00E94763C1150E1F71F9108951F935A
:10799000182F0E94763C803249F0809103018F5F5E
:1079A000809303018530C1F01F9108958091C0003C
:1079B00085FFFCCF84E18093C6008091C00085FFE5
:1079C000FCCF1093C6008091C00085FFFCCF80E102
:1079D0008093C6001F910895E0910401F091050184
:1079E00009951F9108950E94763C803241F0809164
:1079F00003018F5F80930301853081F008958091AA
:107A0000C00085FFFCCF84E18093C6008091C00058
:107A100085FFFCCF80E18093C6000895E0910401CA
:107A2000F09105010995089540E951E08823A1F0FE
:107A30002D9A28EE33E0FA013197F1F721503040CA
:107A4000D1F72D9828EE33E0FA013197F1F7215064
:107A50003040D1F7815061F708953F924F925F9285
:107A60006F927F928F929F92AF92BF92CF92DF924E
:107A7000EF92FF920F931F93CF93DF93000080E16B
:107A80008093C4001092C50088E18093C10086E015
:107A90008093C2005098589A259A81E00E94143D24
:107AA00024E1F22E9EE1E92E85E9D82E0FE0C02ECA
:107AB00010E1B12EAA24A394B1E49B2EA6E58A2E50
:107AC000F2E57F2EE0E26E2E79E4572E63E5462E36
:107AD00050E5352E0E94763C8033B1F18133B9F107
:107AE000803409F46FC0813409F476C0823409F41B
:107AF00085C0853409F488C0803531F1823521F1A3
:107B0000813511F1853509F485C0863509F48DC0BC
:107B1000843609F496C0843709F403C1853709F423
:107B200072C1863709F466C0809103018F5F80932C
:107B30000301853079F6E0910401F0910501099582
:107B40000E94763C803351F60E94F33CC3CF0E94E2
:107B5000763C803249F78091C00085FFFCCFF092DF
:107B6000C6008091C00085FFFCCF9092C600809136
:107B7000C00085FFFCCF8092C6008091C00085FFC9
:107B8000FCCF7092C6008091C00085FFFCCF609250
:107B9000C6008091C00085FFFCCF5092C600809146
:107BA000C00085FFFCCF4092C6008091C00085FFD9
:107BB000FCCF3092C6008091C00085FFFCCFB09210
:107BC000C60088CF0E94763C863808F4BDCF0E945C
:107BD000763C0E94F33C7ECF0E94763C803809F4CC
:107BE0009CC0813809F40BC1823809F43CC1883942
:107BF00009F48FC080E00E94C73C6CCF84E10E94F2
:107C0000BD3C0E94F33C66CF85E00E94BD3C0E94D3
:107C1000F33C60CF0E94763C809306010E94763C44
:107C2000809307010E94F33C55CF0E94763C80333D
:107C300009F41DC183E00E94BD3C80E00E94C73C66
:107C400049CF0E94763C809309020E94763C809343
:107C5000080280910C028E7F80930C020E94763C79
:107C6000853409F415C18091080290910902892B8D
:107C700089F000E010E00E94763CF801E85FFE4FDA
:107C800080830F5F1F4F80910802909109020817AF
:107C9000190788F30E94763C803209F045CF809125
:107CA0000C0280FF01C16091060170910701660F0F
:107CB000771F7093070160930601A0910802B091AD
:107CC00009021097C9F0E8E0F1E09B01AD014E0F09
:107CD0005F1FF999FECF32BD21BD819180BDFA9A17
:107CE000F99A2F5F3F4FE417F50799F76A0F7B1F4B
:107CF00070930701609306018091C00085FFFCCF5F
:107D0000F092C6008091C00085FFFCCFB092C60003
:107D1000E1CE83E00E94C73CDDCE82E00E94C73CFA
:107D2000D9CE0E94763C809309020E94763C8093D3
:107D300008028091060190910701880F991F909386
:107D40000701809306010E94763C853409F4A6C0A1
:107D500080910C028E7F80930C020E94763C8032D0
:107D600009F0B8CE8091C00085FFFCCFF092C6002C
:107D7000609108027091090261157105B9F140E046
:107D800050E080910C02A82FA170B82FB27011C0E2
:107D9000BB2309F45CC0E0910601F0910701319624
:107DA000F0930701E09306014F5F5F4F46175707B7
:107DB000E8F4AA2369F3F999FECF209106013091E6
:107DC000070132BD21BDF89A90B58091C00085FFB2
:107DD000FCCF9093C6002F5F3F4F30930701209355
:107DE00006014F5F5F4F4617570718F38091C00099
:107DF00085FDE5CE8091C00085FFF8CFE0CE81E023
:107E00000E94C73C67CE0E94763C803209F08CCE3F
:107E10008091C00085FFFCCFF092C6008091C00029
:107E200085FFFCCFE092C6008091C00085FFFCCFAB
:107E3000D092C6008091C00085FFFCCFC092C600E2
:107E40008091C00085FFFCCFB092C60043CEE09188
:107E50000601F091070194918091C00085FFFCCF4D
:107E60009093C6009CCF80E10E94C73C33CE0E9415
:107E7000763C0E94763C182F0E94763C112309F430
:107E800083C0113009F484C08FE00E94C73C22CE29
:107E900080910C02816080930C02E5CE80910C02EF
:107EA000816080930C0259CF809107018823880F4D
:107EB000880B8A2180930B02809106019091070123
:107EC000880F991F90930701809306018091080203
:107ED00080FF09C080910802909109020196909359
:107EE000090280930802F894F999FECF1127E091D6
:107EF0000601F0910701C8E0D1E08091080290915D
:107F00000902103091F40091570001700130D9F34B
:107F100003E000935700E89500915700017001308D
:107F2000D9F301E100935700E89509901990009169
:107F3000570001700130D9F301E000935700E89534
:107F40001395103498F011270091570001700130FB
:107F5000D9F305E000935700E895009157000170B0
:107F60000130D9F301E100935700E895329602976A
:107F700009F0C7CF103011F00296E5CF112480919F
:107F8000C00085FFB9CEBCCE8EE10E94C73CA2CD19
:0C7F900085E90E94C73C9ECDF894FFCF0D
:027F9C00800063
:040000030000780081
:00000001FF